:020000040800F2
:10000000F8040020AD020008652D0008CD2C000882
:10001000612D0008B90300088D51000800000000A0
:10002000000000000000000000000000FD35000896
:10003000BD03000800000000672D0008FF35000820
:10004000C7020008C7020008C7020008C70200086C
:10005000C7020008C7020008C7020008C70200085C
:10006000C7020008C7020008C7020008C70200084C
:10007000C7020008C7020008C7020008C70200083C
:10008000C7020008C7020008C7020008C70200082C
:10009000C7020008C7020008C7020008C70200081C
:1000A000C7020008C7020008C7020008C70200080C
:1000B000C7020008C7020008C7020008C7020008FC
:1000C000C7020008C7020008C7020008C7020008EC
:1000D000C7020008C7020008C7020008C7020008DC
:1000E000C7020008C702000800000000C70200089D
:1000F000C7020008C7020008C7020008C7020008BC
:10010000C7020008C7020008C7020008C7020008AB
:10011000C7020008C7020008C7020008C70200089B
:10012000C7020008C7020008C7020008C70200088B
:10013000C7020008C7020008C7020008C70200087B
:1001400000000000000000000000000000000000AF
:10015000C7020008C7020008C7020008C70200085B
:10016000C7020008C7020008C7020008C70200084B
:10017000C7020008C7020008C7020008C70200083B
:10018000C7020008C7020008C7020008C70200082B
:10019000C7020008C7020008C7020008C70200081B
:1001A000C7020008C7020008C7020008C70200080B
:1001B000C7020008C7020008C7020008C7020008FB
:1001C000C7020008C7020008C7020008C7020008EB
:1001D000C7020008C7020008C7020008C7020008DB
:1001E000C7020008C7020008C7020008C7020008CB
:1001F000C7020008C7020008C7020008C7020008BB
:10020000C7020008C7020008C7020008C7020008AA
:10021000C7020008C7020008C7020008C70200089A
:10022000C7020008C7020008C7020008000000005B
:10023000C7020008C702000800000000C70200084B
:10024000C7020008C7020008C7020008C70200086A
:10025000C7020008C7020008C7020008C70200085A
:10026000C7020008C7020008C7020008C70200084A
:10027000C7020008C7020008C7020008000000000B
:10028000C7020008C7020008C702000800000000FB
:1002900000000000C7020008DFF80CD000F07AF878
:1002A00000480047E1540008F80400200648804751
:1002B00006480047FEE7FEE7FEE7FEE7FEE7FEE74B
:1002C000FEE7FEE7FEE7FEE70537000899020008B3
:1002D0002DE9F05F0546002092469B46884606467B
:1002E000814640241BE0284641464746224600F00E
:1002F00041F853465A46C01A914110D31146184648
:10030000224600F028F82D1A67EB01084F462246D6
:100310000120002100F01FF817EB00094E41201EBC
:10032000A4F10104DFDC484631462A464346BDE8D5
:10033000F09FD2B201E000F8012B491EFBD27047BA
:100340000022F6E710B513460A4604461946FFF7A1
:10035000F0FF204610BD202A04DB203A00FA02F10B
:10036000002070479140C2F1200320FA03F31943A3
:1003700090407047202A04DB203A21FA02F0002145
:10038000704721FA02F3D040C2F1200291400843A5
:1003900019467047064C074D06E0E06840F001033F
:1003A00094E8070098471034AC42F6D3FFF778FF83
:1003B000FC5500081C56000800BFFEE77047704758
:1003C000F8B502460023734DDEE001279F400E681A
:1003D00006EA0704002C71D04E68012E08D04E6842
:1003E000022E05D04E68112E02D04E68122E13D167
:1003F00090685F000326BE40B0435F00CE68BE40F9
:1004000030439060506801269E40B0430E79C6F399
:1004100000169E4030435060D0685F000326BE4007
:10042000B0435F008E68BE403043D0604E68022EFD
:1004300002D04E68122E13D1DF0802F1200656F8C2
:1004400027005E07F70E0F26BE40B0435F07FF0E82
:100450000E69BE403043DF0802F1200646F827004F
:1004600010685F000326BE40B0430E7906F0030615
:100470005F00BE40304310604E6806F08056B6F113
:10048000805F1BD100BF444E366846F00206424FE3
:100490003E603E46366806F00206009600BF00BF8A
:1004A0003E4E9F0856F827009E07370F0F26BE4086
:1004B000B0433B4EB24202D100262EE063E0394EFB
:1004C000B24201D1012628E0374EB24201D10226C4
:1004D00023E0364EB24201D103261EE0344EB24232
:1004E00001D1042619E0334EB24201D1052614E0B1
:1004F000314EB24201D106260FE0304EB24201D158
:1005000007260AE02E4EB24201D1082605E02D4E04
:10051000B24201D1092600E00A269F073F0FBE40E4
:1005200030431E4E9F0846F827002868A0434E68B7
:1005300006F48036B6F5803F00D120432860686815
:10054000A0434E6806F40036B6F5003F00D12043C4
:1005500068604FF0B0463068A0434E6806F48016DD
:10056000B6F5801F00D120434FF0B0463060706870
:10057000A0434E6806F40016B6F5001F00D12043D4
:100580004FF0B04670605B1C0E68DE40002E7FF4BA
:100590001CAFF8BD80000058F4440258080400580D
:1005A000000002580004025800080258000C0258CB
:1005B000001002580014025800180258001C02587B
:1005C00000200258002402580AB1816101E00B04A6
:1005D0008361704701480068000C70470010005CA0
:1005E00001480068704700000400002003480068CC
:1005F0000349097808440149086070470400002055
:100600000C00002010B5032000F0A8F801F0F2FC67
:1006100010490968C1F303210F4A515C01F01F0121
:1006200020FA01F40B48006800F00F001146085C46
:1006300000F01F0024FA00F0084908600848046030
:10064000002000F00FF808B1012010BD00F036F8CE
:100650000020FAE718440258EC5500081400002066
:100660001000002070B504461148007808B9012038
:1006700070BD0F4800784FF47A71B1FBF0F00D496E
:100680000968B1FBF0F5284602F086F908B10120AF
:10069000EEE7102C07D200222146501E00F020F871
:1006A0000548046001E00120E2E70020E0E70000E7
:1006B0000C000020100000200800002008B500BF3A
:1006C0000648006840F002000449086008460068D7
:1006D00000F00200009000BF00BF08BDF4440258C3
:1006E0002DE9F05F80460D46164604F061FD074691
:1006F00039462A46334601F00700C0F1070ABAF12D
:10070000040F02D94FF0040A01E0C0F1070AD146F4
:1007100000F1040ABAF1070F02D24FF0000A01E01B
:10072000A0F1030AD4464FF0010A0AFA09FAAAF125
:10073000010A0AEA020A0AFA0CFA4FF0010B0BFA54
:100740000CFBABF1010B0BEA030B4AEA0B0421464D
:10075000404604F035FDBDE8F09F000000BF00F00A
:100760000702064B19684FF6FF031940044B0B4371
:1007700043EA0221014B196000BF70470CED00E015
:100780000000FA052DE9F84304460E461546984642
:10079000FFF726FF8146B06900B100BFF06900B1E4
:1007A00000BF306A00B100BF00BF94F840000128CC
:1007B00002D10220BDE8F883012084F8400000BF88
:1007C00094F8410001283AD100206064422084F866
:1007D00041004B46002220212046CDF8008002F047
:1007E000A7FC074657BB28682168886268682168AB
:1007F0004862A8682168C8622068006820F4400048
:10080000296941F48001084321680860E868B06202
:100810004FF000623146204602F0A6FA4B46012214
:1008200008212046CDF8008002F082FC07462FB94F
:1008300008202168C860012084F8410000E00227F8
:1008400000BF002084F8400000BF3846B2E72DE921
:10085000F84304460D461746FFF7C2FE8046A869D6
:1008600000B100BFE86900B100BF286A00B100BF55
:1008700000BF94F84000012802D10220BDE8F883AF
:10088000012084F8400000BF94F84100012828D1DD
:1008900000206064022084F84100434600222021A9
:1008A0002046009702F044FC0646DEB900222946A5
:1008B000204602F059FA686A78B9434601220221BB
:1008C0002046009702F034FC06465EB902202168FB
:1008D000C860012084F8410004E0012084F8410050
:1008E00000E0022600BF002084F8400000BF304630
:1008F000C4E70000F8B50446FFF772FE06460CB9DF
:100900000120F8BD206A402800D000BF94F84100C3
:1009100038B9204600F09CF841F28831204600F0BA
:10092000BBF92068006820F47061A068401E41EAAD
:10093000002021680860A06C33460022202100902E
:10094000204602F0F5FB054635BB2179E06840EA18
:100950000160E1690843216A0843216809680F4A78
:100960001140084321680860208A616941EA00401B
:10097000A169084321684968094A11400843216870
:1009800048602068006840F001002168086000208D
:100990006064012084F841002846B2E72FFFFF0081
:1009A000FEF8E0FF2DE9F84304460D461646FFF732
:1009B00017FE8046A86900B100BFE86900B100BF1A
:1009C000286A00B100BF00BF94F84000012802D19E
:1009D0000220BDE8F883012084F8400000BF94F8AD
:1009E000410001282CD100206064822084F841005D
:1009F000A06C4346002220210090204602F098FB84
:100A00000746F7B92068006820F0080071680843BD
:100A100021680860706808280BD130682168086375
:100A200010202168C8602068006840F480102168A8
:100A300008604FF040622946204602F095F900E038
:100A4000022700BF002084F8400000BF3846C0E7FE
:100A500010B586B00446142101A8FFF771FC504977
:100A6000206888427ED100BF4E48006840F4804034
:100A70004C4908600846006800F48040009000BFC0
:100A800000BF00BF47480C30006840F002004549F5
:100A90000C3108600846006800F00200009000BFBA
:100AA00000BF00BF0846006840F00200086008462A
:100AB000006800F00200009000BF00BF00BF0846C1
:100AC000006840F0080008600846006800F0080070
:100AD000009000BF00BF00BF0846006840F0100053
:100AE00008600846006800F01000009000BF00BFDA
:100AF00000BF0846006840F008000860084600682B
:100B000000F00800009000BF00BF00BF084600686A
:100B100040F0080008600846006800F008000090F7
:100B200000BF00BF02200290002003900320049029
:100B3000042001900920059001A91B48FFF740FC03
:100B4000402001900A20059001A91748FFF738FCC2
:100B50004FF4006001900920059001A91348FFF7A8
:100B60002FFC00E019E0042001900920059001A964
:100B70000F48FFF725FC4FF48050019009200590A5
:100B800001A90A48FFF71CFC4FF40050019009200E
:100B9000059001A90548FFF713FC06B010BD000041
:100BA00000500052D444025800040258000C02586D
:100BB000001002582DE9F84F04460E46174600254E
:100BC000FFF70EFD80462068D0F81890206800F1ED
:100BD000200A00BF94F84000012802D10220BDE89D
:100BE000F88F012084F8400000BF94F841000128EC
:100BF0004AD100206064002E40D0222084F84100B9
:100C000020680069401CA06320680069401C606384
:100C100026632068406920F0406040F080602168D1
:100C200048612068C0F8189013E04346012206216D
:100C30002046009702F07CFA054605B10CE09AF8D0
:100C40000000216B0870206B401C2063A06B401ECD
:100C5000A063A06B0028E8D100BF5DB94346012224
:100C600002212046009702F063FA054615B90220DA
:100C70002168C860012084F8410006E0606C40F003
:100C800008006064012500E0022500BF002084F810
:100C9000400000BF2846A2E78164704710B501F00C
:100CA0005FF905490968C1F30211044A515C01F07A
:100CB0001F01C84010BD000020440258EC55000838
:100CC00070B50146844D2D6805F00303824D2D68F3
:100CD000C5F30530804D2D1D2D68C5F300147E4DE4
:100CE00014352D68C5F3CC0515FB04F501EE105A3B
:100CF000B8EE411AF0EE410A00286FD023B1012B63
:100D00004ED0022B6BD16BE0734D283D2D68C5F39F
:100D100040153DB3704D283D2D68C5F3C1066F4D9C
:100D200025FA06F201EE102AF8EE411A01EE100A39
:100D3000B8EE411A81EE812A9FED691AC0EE811A40
:100D4000654D10352D68C5F3080501EE105AB8EE53
:100D5000411A31EE811AF7EE001A31EE211A22EE15
:100D6000010A1CE001EE100AB8EE411ADFED5D1A2F
:100D700081EE812A9FED5A1AC0EE811A564D103528
:100D80002D68C5F3080501EE105AB8EE411A31EE90
:100D9000811AF7EE001A31EE211A22EE010A5BE009
:100DA00001EE100AB8EE411ADFED4F1A81EE812AEA
:100DB0009FED4B1AC0EE811A474D10352D68C5F3D3
:100DC000080501EE105AB8EE411A31EE811AF7EE1D
:100DD000001A31EE211A22EE010A3DE077E01DE013
:100DE00001EE100AB8EE411A9FED402AC2EE011A38
:100DF0009FED3B1A80EE812A374D10352D68C5F3E3
:100E0000080501EE105AB8EE411A32EE011AB7EE9B
:100E1000002A31EE021A21EE810A1DE001EE100ACD
:100E2000B8EE411ADFED301A81EE812A9FED2C1ABF
:100E3000C0EE811A284D10352D68C5F3080501EE66
:100E4000105AB8EE411A31EE811AF7EE001A31EE5F
:100E5000211A22EE010A00BF00BF1F4D10352D6878
:100E6000C5F3462501EE105AB8EE411AF7EE001A06
:100E700031EE211AC0EE011ABCEEE11A81ED001A22
:100E8000154D10352D68C5F3064501EE105AB8EE24
:100E9000411AF7EE001A31EE211AC0EE011ABCEE2B
:100EA000E11A81ED011A0C4D10352D68C5F3066568
:100EB00001EE105AB8EE411AF7EE001A31EE211A7F
:100EC000C0EE011ABCEEE11A81ED021A03E0002522
:100ED0000D604D608D6070BD284402580090D003B5
:100EE000000000460024744C0024744A20BCBE4B11
:100EF00070B50146844D2D6805F00303824D2D68C1
:100F0000C5F30550804D2D1D2D68C5F300247E4D81
:100F10001C352D68C5F3CC0515FB04F501EE105A00
:100F2000B8EE411AF0EE410A00286FD023B1012B30
:100F30004ED0022B6BD16BE0734D283D2D68C5F36D
:100F400040153DB3704D283D2D68C5F3C1066F4D6A
:100F500025FA06F201EE102AF8EE411A01EE100A07
:100F6000B8EE411A81EE812A9FED691AC0EE811A0E
:100F7000654D18352D68C5F3080501EE105AB8EE19
:100F8000411A31EE811AF7EE001A31EE211A22EEE3
:100F9000010A1CE001EE100AB8EE411ADFED5D1AFD
:100FA00081EE812A9FED5A1AC0EE811A564D1835EE
:100FB0002D68C5F3080501EE105AB8EE411A31EE5E
:100FC000811AF7EE001A31EE211A22EE010A5BE0D7
:100FD00001EE100AB8EE411ADFED4F1A81EE812AB8
:100FE0009FED4B1AC0EE811A474D18352D68C5F399
:100FF000080501EE105AB8EE411A31EE811AF7EEEB
:10100000001A31EE211A22EE010A3DE077E01DE0E0
:1010100001EE100AB8EE411A9FED402AC2EE011A05
:101020009FED3B1A80EE812A374D18352D68C5F3A8
:10103000080501EE105AB8EE411A32EE011AB7EE69
:10104000002A31EE021A21EE810A1DE001EE100A9B
:10105000B8EE411ADFED301A81EE812A9FED2C1A8D
:10106000C0EE811A284D18352D68C5F3080501EE2C
:10107000105AB8EE411A31EE811AF7EE001A31EE2D
:10108000211A22EE010A00BF00BF1F4D18352D683E
:10109000C5F3462501EE105AB8EE411AF7EE001AD4
:1010A00031EE211AC0EE011ABCEEE11A81ED001AF0
:1010B000154D18352D68C5F3064501EE105AB8EEEA
:1010C000411AF7EE001A31EE211AC0EE011ABCEEF9
:1010D000E11A81ED011A0C4D18352D68C5F306652E
:1010E00001EE105AB8EE411AF7EE001A31EE211A4D
:1010F000C0EE011ABCEEE11A81ED021A03E00025F0
:101100000D604D608D6070BD284402580090D00382
:10111000000000460024744C0024744A20BCBE4BDE
:101120002DE9F04104460025A846206800F0006043
:10113000B0F1006F30D1606E48B1B0F5801F0DD0B6
:10114000B0F5001F10D0B0F5401F15D113E0F948DD
:10115000006840F40030F74908600FE00221201DCC
:1011600002F00CF8054609E0022104F1240002F027
:10117000B7F8054602E001E0012500BF00BF55B900
:10118000EC482430006820F44010616E0843E949BF
:101190002431086000E0A846208800F48070B0F593
:1011A000807F2DD1606D05281AD2DFE800F0030A98
:1011B00010171800DF48006840F40030DD4908606F
:1011C00010E00021201D01F0D9FF05460AE00021B2
:1011D00004F1240002F084F8054603E002E001E097
:1011E000012500BF00BF55B9D2482430006820F067
:1011F0000700616D0843CF492431086000E0A8462C
:10120000208800F40070B0F5007F33D1A06D8028F5
:1012100017D003DC40B140281CD10CE0C02817D007
:10122000B0F5807F16D114E0C248006840F4003069
:10123000C049086010E00021201D01F09FFF054615
:101240000AE0002104F1240002F04AF8054603E018
:1012500002E001E0012500BF00BF55B9B5482430C8
:10126000006820F4E070A16D0843B24924310860A1
:1012700000E0A846208800F48060B0F5806F38D187
:10128000D4F8A400B0F5800F19D004DC50B1B0F54B
:10129000001F1DD10DE0B0F5C00F17D0B0F5000F45
:1012A00016D114E0A348006840F40030A14908605A
:1012B00010E00021201D01F061FF05460AE0002139
:1012C00004F1240002F00CF8054603E002E001E01E
:1012D000012500BF00BF5DB996482C30006820F49E
:1012E0006000D4F8A410084392492C31086000E053
:1012F000A846208800F40060B0F5006F38D1D4F81B
:10130000A800B0F1007F19D004DC50B1B0F1807FAB
:101310001DD10DE0B0F1407F17D0B0F1806F16D134
:1013200014E08448006840F400308249086010E00E
:101330000021201D01F022FF05460AE0002104F1F2
:10134000240001F0CDFF054603E002E001E00125A5
:1013500000BF00BF5DB977482C30006820F0E06026
:10136000D4F8A810084373492C31086000E0A8465F
:10137000206800F00070B0F1007F27D1A06CA0B110
:10138000102804D0202809D030280FD10CE069485B
:10139000006840F400306749086009E00221201D20
:1013A00001F0ECFE054603E002E001E0012500BF8C
:1013B00000BF55B95F482030006820F03000A16CB4
:1013C00008435C492031086000E0A846208800F40A
:1013D0008050B0F5805F36D1E06DB0F5005F19D078
:1013E00004DC50B1B0F5805F1DD10DE0B0F5405F79
:1013F00017D0B0F5804F16D114E04E48006840F485
:1014000000304C49086010E00021201D01F0B6FEBC
:1014100005460AE0002104F1240001F061FF0546C1
:1014200003E002E001E0012500BF00BF55B94148DB
:101430002430006820F4E040E16D08433D49243148
:10144000086000E0A846208800F40050B0F5005F76
:1014500034D1206EB0F5403F1DD007DC68B1B0F547
:10146000803F0BD0B0F5003F18D10DE0B0F5802FD4
:1014700012D0B0F5A02F11D10FE011E00121201DF5
:1014800001F07CFE05460BE0012104F1240001F08F
:1014900027FF054604E003E002E001E0012500BF6C
:1014A00000BF55B923482430006820F4E020216EA5
:1014B000084320492431086000E0A846208800F451
:1014C0008040B0F5804F38D1D4F8AC00B0F1405F27
:1014D0001DD007DC68B1B0F1805F0BD0B0F1005FC8
:1014E00018D10DE0B0F1804F12D0B0F1A04F11D162
:1014F0000FE011E00121201D01F040FE05460BE048
:10150000012104F1240001F0EBFE054604E003E0B4
:1015100002E001E0012500BF00BF6DB905482C3095
:10152000006820F0E040D4F8AC10084301492C31A9
:10153000086002E02C440258A846208800F40040CD
:10154000B0F5004F26D1E06E98B1B0F1805F03D0C6
:10155000B0F1005F0ED106E0F948006840F40030B9
:10156000F749086008E00121201D01F007FE05464B
:1015700002E001E0012500BF00BF55B9F04824306A
:10158000006820F04050E16E0843ED4924310860C6
:1015900000E0A846206800F08070B0F1807F27D17D
:1015A000606CA0B1012804D0022809D003280FD113
:1015B0000CE0E348006840F40030E149086009E0CD
:1015C0000221201D01F0DAFD054603E002E001E002
:1015D000012500BF00BF55B9D9482030006820F070
:1015E0000300616C0843D6492031086000E0A8463A
:1015F000206800F48000B0F5800F7DD1D1480068EC
:1016000040F48070CF490860FEF7EAFF064606E026
:10161000FEF7E6FF801B642801D9032505E0C948D1
:10162000006800F480700028F2D000BF85BBC44879
:101630004430006800F44070B4F8B01001F4407118
:10164000884213D0BE484430006820F44077BC483C
:101650004430006840F48030B9494431086008469D
:10166000006820F48030086008460760D4F8B000B5
:10167000B0F5807F15D1FEF7B3FF064609E0FEF70F
:10168000AFFF801B41F28831884202D9032507E071
:1016900038E0AB4844300068C0F340000028EED08A
:1016A00000BF55BB00BFB4F8B00000F44070B0F507
:1016B000407F0ED1A2481C38006820F47C51A24A19
:1016C000D4F8B000104041EA10109D491C39086060
:1016D00007E09B481C38006820F47C5098491C396E
:1016E0000860974844300068B4F8B010C1F30B01AB
:1016F00008439349443101E005E001E0086002E05D
:10170000A84600E0A846207800F0010068B3A06F6A
:10171000182819D005DC48B1082808D0102816D19F
:101720000BE0202811D0282811D10FE011E0012171
:10173000201D01F023FD05460BE0012104F12400EA
:1017400001F0CEFD054604E003E002E001E00125E2
:1017500000BF00BF55B97A482830006820F0380033
:10176000A16F084376492831086000E0A846207838
:1017700000F00200022828D1606F062815D2DFE8A9
:1017800000F003040A11121311E00121201D01F0E1
:10179000F5FC05460BE0012104F1240001F0A0FD59
:1017A000054604E003E002E001E0012500BF00BFC0
:1017B00055B963482830006820F00700616F08437E
:1017C0005F492831086000E0A846207800F0040056
:1017D00004282AD1D4F89000062815D2DFE800F0BA
:1017E00003040A11121311E00121201D01F0C6FCAF
:1017F00005460BE0012104F1240001F071FD0546CE
:1018000004E003E002E001E0012500BF00BF5DB994
:101810004B482C30006820F00700D4F890100843A3
:1018200047492C31086000E0A846207800F02000ED
:10183000202836D1D4F88C00B0F1405F1DD007DCF1
:1018400068B1B0F1805F0BD0B0F1005F18D10DE04E
:10185000B0F1804F12D0B0F1A04F11D10FE011E0E4
:101860000021201D01F08AFC05460BE0022104F155
:10187000240001F035FD054604E003E002E001E04C
:10188000012500BF00BF5DB92D482830006820F059
:10189000E040D4F88C10084329492831086000E062
:1018A000A846207800F04000402836D1D4F89800AF
:1018B000B0F5406F1DD007DC68B1B0F5806F0BD07C
:1018C000B0F5006F18D10DE0B0F5805F12D0B0F523
:1018D000A05F11D10FE011E00021201D01F04EFCAE
:1018E00005460BE0022104F1240001F0F9FC054655
:1018F00004E003E002E001E0012500BF00BF5DB9A4
:101900000F482C30006820F4E050D4F898100843B9
:101910000B492C31086000E0A846207800F08000D8
:1019200080283AD1D4F89C00B0F5C04F23D00DDC0C
:1019300098B1B0F5005F11D0B0F5804F1ED113E023
:101940002C44025800480258FFFCFF0FB0F5004F2E
:1019500012D0B0F5204F11D10FE011E00021201D71
:1019600001F00CFC05460BE0022104F1240001F01B
:10197000B7FC054604E003E002E001E0012500BFFA
:1019800000BF4DB9AD48006820F46040D4F89C1009
:101990000843AA49086000E0A846207800F0080043
:1019A000082817D1D4F88000B0F5805F07D1022154
:1019B00004F1240001F094FC08B14FF001089F48A5
:1019C000001F006820F44050D4F8801008439B4961
:1019D000091F0860207800F01000102815D1D4F8F5
:1019E0009400B0F5807F07D1022104F1240001F0BA
:1019F00077FC08B14FF001089048006820F440706F
:101A0000D4F8941008438D490860206800F4002041
:101A1000B0F5002F26D1D4F8A00030B1B0F5803F4A
:101A200009D0B0F5003F0ED10CE00021201D01F0DF
:101A3000A5FB054609E0022104F1240001F050FC59
:101A4000054602E001E0012500BF00BF4DB97B481B
:101A5000006820F44030D4F8A010084377490860AB
:101A600000E0A846206800F48020B0F5802F2DD13A
:101A7000D4F88400B0F5801F06D0B0F5001F0CD05C
:101A8000B0F5401F11D10FE06C482C38006840F4CD
:101A900000306A492C39086009E0012104F1240072
:101AA00001F01EFC054602E001E0012500BF00BF79
:101AB0005DB96248001F006820F44010D4F884101B
:101AC00008435E49091F086000E0A846206800F44A
:101AD0008030B0F5803F24D1E06C18B1B0F5803F84
:101AE0000FD108E055482C38006840F400305349C5
:101AF0002C39086007E00221201D01F03FFB05465C
:101B000001E0012500BF00BF55B94C480C38006802
:101B100020F48030E16C084348490C39086000E04B
:101B2000A846206800F00050B0F1005F07D1022104
:101B300004F1240001F0D4FB08B14FF00108206843
:101B400000F40030B0F5003F27D1E06FA0B1B0F550
:101B5000807F06D0B0F5007F0CD0B0F5407F0CD16F
:101B600009E036482C38006840F4003033492C39FD
:101B7000086004E003E002E001E0012500BF00BFCF
:101B800055B92E48001F006820F44070E16F0843EB
:101B90002A49091F086000E0A846206800F4801068
:101BA000B0F5801F09D125480838006820F00040B2
:101BB000216F0843214908390860206800F40010AB
:101BC000B0F5001F09D11D480838006820F080706A
:101BD000A16E0843194908390860206800F0804068
:101BE000B0F1804F11D100BF14484838006820F48C
:101BF000004012494839086008460068D4F8B81017
:101C000008430E494839086000BF206800F00040D2
:101C1000B0F1004F09D109480C38006820F040505D
:101C2000216D084305490C390860B8F1000F02D155
:101C30000020BDE8F0810120FBE700005844025875
:101C40002DE9F04104460D4614B90120BDE8F081AC
:101C5000BD48006800F00F00A8420ED2BA480068E4
:101C600020F00F002843B84908600846006800F0DB
:101C70000F00A84201D00120E8E7207800F004001E
:101C800004280ED1B1492069096801F07001884229
:101C900007D9AE48006820F0700021690843AB49BD
:101CA0000860207800F00800082811D1A749091D14
:101CB0006069096801F07001884209D9A348001DD4
:101CC000006820F0700061690843A049091D0860A0
:101CD000207800F01000102811D19C49091DA0693E
:101CE000096801F4E061884209D99848001D00683C
:101CF00020F4E060A16908439449091D0860207838
:101D000000F02000202811D190490831E0690968CD
:101D100001F07001884209D98C480830006820F031
:101D20007000E1690843894908310860207800F0B3
:101D3000020002280ED18549E068096801F00F0110
:101D4000884207D98148006820F00F00E168084305
:101D50007E490860207800F00100002850D07B48C0
:101D6000006820F47060A1680843784908606068E2
:101D7000022807D1754818380068C0F34040F8B908
:101D8000012063E76068032807D1704818380068AD
:101D9000C0F34060A0B9012058E76068012807D16E
:101DA0006A4818380068C0F3002048B901204DE7A0
:101DB000664818380068C0F3800008B9012045E77C
:101DC00062480838006820F00700616808435F49EE
:101DD00008390860FEF704FC064608E0FEF700FC40
:101DE000801B41F28831884201D903202EE75748F1
:101DF0000838006800F038006168B0EBC10FEDD121
:101E0000207800F0020002280ED15049E0680968ED
:101E100001F00F01884207D24C48006820F00F0003
:101E2000E1680843494908604748006800F00F002E
:101E3000A8420ED94448006820F00F0028434249C8
:101E400008600846006800F00F00A84201D0012099
:101E5000FCE6207800F0040004280ED13B492069FC
:101E6000096801F07001884207D23848006820F004
:101E700070002169084335490860207800F00800A7
:101E8000082811D13149091D6069096801F0700104
:101E9000884209D22D48001D006820F07000616959
:101EA00008432A49091D0860207800F01000102816
:101EB00011D12649091DA069096801F4E061884231
:101EC00009D22248001D006820F4E060A16908439F
:101ED0001E49091D0860207800F02000202811D13B
:101EE0001A490831E069096801F07001884209D295
:101EF00016480830006820F07000E1690843134973
:101F00000831086000F076F810490968C1F3032130
:101F10000F4A515C01F01F0120FA01F70B480068DD
:101F200000F00F001146085C00F01F0027FA00F0D7
:101F3000084908600848076008480068FEF792FBF7
:101F40008046404682E600000020005218440258B5
:101F5000EC550008140000201000002008000020AC
:101F600010B500F047F80D490968C1F303210C4A88
:101F7000515C01F01F0120FA01F40848006800F0EC
:101F80000F001146085C00F01F0024FA00F005491C
:101F90000860054804600846006810BD18440258EF
:101FA000EC550008140000201000002000B5FFF7D9
:101FB000D7FF05490968C1F30211044A515C01F0D9
:101FC0001F01C84000BD00001C440258EC55000829
:101FD00000B5FFF7C5FF05490968C1F30221044AAE
:101FE000515C01F01F01C84000BD00001C440258B4
:101FF000EC550008F0B5824E366806F0380636B16A
:10200000082E15D0102E15D0182E7DD114E07C4E40
:10201000103E3668C6F3401646B1794E103E36681B
:10202000C6F3C107774E26FA07F000E07548E5E0F1
:102030007548E3E07548E1E0714E1836366806F001
:1020400003046F4E18363668C6F305116C4E1C3605
:10205000366806F001056A4E24363668C6F3CC06AB
:1020600016FB05F601EE106AB8EE410A002971D0A0
:1020700024B1012C50D0022C6DD16DE0604E103E89
:102080003668C6F340163EB35D4E103E3668C6F362
:10209000C1075C4E26FA07F301EE103AF8EE411A3A
:1020A00001EE101AB8EE411A81EE812A9FED581AFE
:1020B000C0EE011A524E20363668C6F3080601EE0D
:1020C000106AB8EE411A31EE811AF7EE001A31EEBD
:1020D000211A62EE010A1EE001EE101AB8EE411A52
:1020E000DFED4C1A81EE812A9FED491AC0EE011AEC
:1020F000434E20363668C6F3080601EE106AB8EE85
:10210000411A31EE811A00E076E0F7EE001A31EE66
:10211000211A62EE010A5BE001EE101AB8EE411AD4
:102120009FED3D2AC2EE011A9FED391A80EE012A79
:10213000334E20363668C6F3080601EE106AB8EE54
:10214000411A32EE011AB7EE002A31EE021A61EEA0
:10215000810A3DE04EE01DE001EE101AB8EE411A92
:10216000DFED2E1A81EE812A9FED291AC0EE011AA9
:10217000234E20363668C6F3080601EE106AB8EE24
:10218000411A31EE811AF7EE001A31EE211A62EE91
:10219000010A1DE001EE101AB8EE411A9FED1E2A49
:1021A000C2EE011A9FED1A1A80EE012A144E203653
:1021B0003668C6F3080601EE106AB8EE411A32EE30
:1021C000011AB7EE002A31EE021A61EE810A00BF51
:1021D00000BF0B4E20363668C6F34626721C01EE51
:1021E000102AB8EE411AC0EE811ABCEEE11A11EEC7
:1021F000100A00E0002001E0034800BF00BFF0BD6E
:10220000104402580090D00300093D0040787D0141
:10221000000000460024744C0024744A20BCBE4BCD
:102220002DE9F047044614B90120BDE8F087207875
:1022300000F00100002870D0F748006800F038086E
:10224000F5481830D0F80090B8F1100F06D0B8F16A
:10225000180F0FD109F0030002280BD1EE481038F7
:102260000068C0F3404000286AD06068002867D149
:102270000120DAE700BF6068B0F5803F08D1E6488A
:102280001038006840F48030E349103908602EE0CF
:10229000606868B9E0481038006820F48030DE4992
:1022A000103908600846006820F4802008601EE0AD
:1022B0006068B0F5A02F0DD1D7481038006840F401
:1022C0008020D549103908600846006840F4803005
:1022D00008600CE0D0481038006820F48030CE4907
:1022E000103908600846006820F48020086000BFAC
:1022F000606898B1FEF774F9054606E0FEF770F9DC
:10230000401B642801D903208FE7C34810380068B8
:10231000C0F340400028F1D012E012E0FEF760F96F
:10232000054606E0FEF75CF9401B642801D903204E
:102330007BE7B94810380068C0F340400028F1D16D
:1023400000BF207800F0020002286BD1B24800687C
:1023500000F03808B0481830D0F80090B8F1000FFD
:1023600005D0B8F1180F2BD109F0030040BBAA48E3
:1023700010380068C0F3800018B1E06808B9012087
:1023800053E700BFFEF726F941F2030188420BD85C
:10239000A1480C38006820F47C30216940EA013003
:1023A0009D490C3908600AE09B480C38006820F011
:1023B000FE40217C40EA016097490C39086058E0F2
:1023C000E06870B394481038006820F01900E168A4
:1023D0000843914910390860FEF702F9054606E006
:1023E000FEF7FEF8401B022801D903201DE78A48AA
:1023F00010380068C0F380000028F1D000BFFEF75D
:10240000E9F841F2030188420DD883480C3800688E
:1024100020F47C30216940EA01307F490C390860A2
:102420000CE00CE026E07C480C38006820F0FE4010
:10243000217C40EA016078490C39086019E076484F
:102440001038006820F00100734910390860FEF769
:10245000C7F8054606E0FEF7C3F8401B022801D97D
:102460000320E2E66C4810380068C0F380000028C2
:10247000F1D100BF207800F0100010286ED166481E
:10248000006800F0380864481830D0F80090B8F1BF
:10249000080F06D0B8F1180F2FD109F0030001285A
:1024A0002BD15D4810380068C0F3002020B1E069EE
:1024B000802801D00120B8E600BFFEF78BF841F27A
:1024C000030188420CD854480C38006820F0F840CA
:1024D00094F8201040EA81604F490C3908600BE005
:1024E0004D48001F006820F07C5094F8201040EA0E
:1024F00001604949091F086058E0E06968B346482F
:102500001038006840F08000434910390860FEF739
:1025100067F8054606E0FEF763F8401B022801D97C
:10252000032082E63C4810380068C0F300200028F1
:10253000F1D000BFFEF74EF841F2030188420ED8F9
:1025400035480C38006820F0F84094F8201040EA34
:10255000816031490C3908600DE00DE027E02E481C
:10256000001F006820F07C5094F8201040EA0160C1
:102570002949091F086019E027481038006820F031
:102580008000254910390860FEF72AF8054606E064
:10259000FEF726F8401B022801D9032045E61E4815
:1025A00010380068C0F300200028F1D100BF207867
:1025B00000F00800082837D16069D0B116486430AF
:1025C000006840F00100144964310860FEF708F823
:1025D000054606E0FEF704F8401B022801D9032057
:1025E00023E60D4864300068C0F340000028F1D0B5
:1025F0001AE009486430006820F00100064964319F
:102600000860FDF7EDFF054608E0FDF7E9FF401B18
:10261000022803D9032008E610440258DC48006869
:10262000C0F340000028F0D1207800F020002028DE
:1026300036D1A069D0B1D6487438006840F48050D3
:10264000D34974390860FDF7CBFF054606E0FDF776
:10265000C7FF401B022801D90320E6E5CC487438A7
:102660000068C0F340300028F1D019E0C848743841
:10267000006820F48050C64974390860FDF7B0FF47
:10268000054606E0FDF7ACFF401B022801D90320F8
:10269000CBE5BF4874380068C0F340300028F1D162
:1026A000207800F0040004287DD1BA48006840F486
:1026B0008070B8490860FDF793FF054606E0FDF716
:1026C0008FFF401B642801D90320AEE5B1480068A4
:1026D00000F480700028F2D000BFA068012808D163
:1026E000AB48001F006840F00100A949091F0860BD
:1026F0002DE0A06868B9A648001F006820F001001E
:10270000A349091F08600846006820F0040008601B
:102710001DE0A06805280DD19D48001F006840F00D
:1027200004009B49091F08600846006840F001004A
:1027300008600CE09648001F006820F001009449F2
:10274000091F08600846006820F00400086000BF08
:10275000A068A0B1FDF744FF054608E0FDF740FF83
:10276000401B41F28831884201D903205DE5884849
:10277000001F0068C0F340000028EFD013E0FDF711
:102780002FFF054608E0FDF72BFF401B41F2883183
:10279000884201D9032048E57D48001F0068C0F346
:1027A00040000028EFD1606A00287DD07848643866
:1027B000006800F03800182877D0606A022875D1C8
:1027C00073487438006820F080707149743908606B
:1027D000FDF706FF054606E0FDF702FF401B022855
:1027E00001D9032021E56A4874380068C0F34060CD
:1027F0000028F1D100BFD4E90A1041EA0010644971
:102800004C39096840F2F3329143084360494C392E
:102810000860208E401EC0F30800616B491E4FF413
:102820007E4202EA41210843218F491ED20102EA79
:10283000014108433C21095D491E120202EA01617F
:10284000084353494439086000BF081F006820F05E
:102850000100091F08604E48403800684FF6F871C3
:102860008843A16C40EAC1004949403908604848A2
:102870004838006820F00C00216C0843444948396E
:1028800008600846006820F00200616C0843404977
:10289000483908600846006840F4803008600846FF
:1028A000006840F4003002E06FE041E025E008609D
:1028B0000846006840F4802008600846006840F040
:1028C0000100086032487438006840F08070304978
:1028D00074390860FDF784FE054606E0FDF780FECA
:1028E000401B022801D903209FE42948743800685E
:1028F000C0F340600028F1D047E0254874380068F4
:1029000020F08070224974390860FDF769FE0546A1
:1029100006E0FDF765FE401B022801D9032084E490
:102920001B4874380068C0F340600028F1D12CE0E7
:1029300017484C380768164844380668606A01280A
:1029400021D007F00301A06A81421CD1C7F3051111
:10295000E06A884217D1C6F30801206B401E81420D
:1029600011D1606B401EC6F3462188420BD1A06B8B
:10297000401EC6F30641884205D1E06B401EC6F3F7
:102980000661884201D001204FE400204DE40000A0
:10299000744402580048025870B504462546681E23
:1029A000B0F1807F01D301200FE0681E4FF0E021DD
:1029B00048610F214FF0FF3002F002FC00204FF081
:1029C000E021886107200861002070BD014600BF3A
:1029D00091F87C00012801D102207047012081F884
:1029E0007C0000BF2420C1F88000086802680868E5
:1029F000006820F001000B68186022F000520020EF
:102A00004866086802602020C1F8800000BF0020EE
:102A100081F87C0000BF00BFDFE770B504460D46BB
:102A200000BF94F87C00012801D1022070BD012074
:102A300084F87C0000BF2420C4F880002068066869
:102A40002068006820F00100216808602068806824
:102A500020F06060284321688860204600F0A6FED0
:102A6000206806602020C4F8800000BF002084F8A1
:102A70007C0000BF00BFD9E770B504460D4600BF1B
:102A800094F87C00012801D1022070BD012084F857
:102A90007C0000BF2420C4F88000206806682068FD
:102AA000006820F00100216808602068806820F03C
:102AB0006040284321688860204600F077FE206847
:102AC00006602020C4F8800000BF002084F87C004D
:102AD00000BF00BFD9E710B504460CB9012010BDF6
:102AE000A06900B100E000BFD4F8800028B9002040
:102AF00084F87C00204600F02BF82420C4F88000E5
:102B00002068006820F0010021680860204600F07D
:102B10003BFF012800D1E2E7A06A10B1204600F097
:102B20007DFE2068406820F490402168486020685D
:102B3000806820F02A00216888602068006840F0E2
:102B4000010021680860204600F0E4FEC7E70000AD
:102B500010B586B00446142101A8FDF7F1FB234906
:102B60002068884240D100BF2148006840F0100032
:102B70001F4908600846006800F01000009000BF80
:102B800000BF00BF1A481038006840F00100184923
:102B9000103908600846006800F00100009000BF8E
:102BA00000BF00BF0846006840F00100086008460A
:102BB000006800F00100009000BF00BF4FF40070FB
:102BC000019002200290012003900320049007202E
:102BD000059001A90748FDF7F3FB4FF480600190D1
:102BE00001A90448FDF7ECFB06B010BD0010014040
:102BF000F0440258000002582DE9F84F04460E46F2
:102C000017469946D4F8800020285DD106B117B93F
:102C10000120BDE8F88F00BF94F87C00012801D1A5
:102C20000220F6E7012084F87C0000BF0020543425
:102C300060632120E062FDF7D3FC82462780678035
:102C4000543CA068B0F5805F04D1206910B900251C
:102C5000B04602E035464FF000081DE05346002222
:102C600080212046CDF8009002F006FA08B103203A
:102C7000CFE745B9B8F80000C0F3080021688862C2
:102C800008F1020803E02878216888626D1CB4F816
:102C90005600401EA4F85600B4F856000028DDD1B6
:102CA0005346002240212046CDF8009002F0E4F97E
:102CB00008B10320ADE72020C4F8800000BF002049
:102CC00084F87C0000BFA4E70220A2E700BFFEE773
:102CD00000B587B0142102A8FDF732FB00BF1048F1
:102CE000006840F004000E4908600846006800F0E3
:102CF0000400019000BF00BF012251030948FDF705
:102D000063FC4FF4005002900120039000200490D7
:102D1000059002A90348FDF753FB07B000BD000072
:102D2000E04402580008025810B50B480B490860EF
:102D3000012048602021094881601021C1601621CE
:102D4000016100214161012181610021C1610162B4
:102D5000FDF7D0FD10BD000000500052A80000207B
:102D600000BFFEE77047704710B54B6A33B1B2F150
:102D7000406F03D08B6A5B1E046823618B69002B54
:102D800076D00B6AE3B38B680468E361CB69FBB16F
:102D9000D1E90B3423434C6B23434C6A23438C8A85
:102DA00043EA84430C6923430C6A2343CC682343DE
:102DB000CC6923438C6923430C6823431343046881
:102DC0006361B2F1406F02D04B680468A361BEE05A
:102DD000D1E90B3423434C6B23434C6A23438C8A45
:102DE00043EA84430C6923430C6A2343CC6923439D
:102DF0008C6923430C682343134304686361A6E092
:102E0000FFE7CB69EBB1D1E90B3423434C6B234390
:102E10004C6A23438C8A43EA84430C6A2343CC687C
:102E20002343CC6923438C6923430C682343134316
:102E300004686361B2F1406FC9D04B680468A36154
:102E400085E0D1E90B3423434C6B23434C6A234385
:102E50008C8A43EA84430C6A2343CC6923438C69FC
:102E600023430C6823431343046863616FE0FFE767
:102E70000B6AC3B38B680468E361CB69EBB1D1E93A
:102E80000B3423434C6B23434C6A23438C8A43EA21
:102E900084430C6923430C6A2343CC682343CC69E5
:102EA00023438C692343134304686361B2F1406F89
:102EB0004DD04B680468A36149E0D1E90B3423434A
:102EC0004C6B23434C6A23438C8A43EA84430C694A
:102ED00023430C6A2343CC6923438C692343134364
:102EE0000468636133E0FFE7CB69DBB1D1E90B3400
:102EF00023434C6B23434C6A23438C8A43EA844329
:102F00000C6A2343CC682343CC6923438C69234355
:102F1000134304686361B2F1406F18D04B680468D2
:102F2000A36114E04B6A93B1D1E90B3423434C6B9A
:102F300023434C6A23438C8A43EA84430C6A234329
:102F4000CC6923438C69234313430468636110BD38
:102F500000B595B04FF480700D9000200E900F904A
:102F60001290139014904FF08070109000200C90ED
:102F70000520079000200190059010200390800408
:102F8000069001200490029041F2883301AA07A91B
:102F90000448FDF7F7FB18B16FF0020015B000BD53
:102FA0000020FBE7A800002010B5FFF7BDFE00F0F1
:102FB00089F800F055F804460748844205D12146B7
:102FC00006A002F0E5F8002010BD214609A002F09D
:102FD000DFF84FF0FF30F7E71740EF005732355179
:102FE0003634204F4B2C666C6173682049443A2577
:102FF000580D0A00573235513634204552524F523F
:103000002121212121202049443A25580D0A000080
:1030100000B591B04FF480700990400106900020F7
:103020000B900E900F9010904FF440600A90800328
:103030000C9006200890EB20039000200290019055
:1030400000F040F801AA03A90448FDF7ABFC18B151
:103050006FF0050011B000BD0020FBE7A8000020C4
:1030600010B590B04FF4807008904001059000209A
:103070000A900D900E900F9009904FF080700B9079
:103080000020079003200C909F20029041F288328C
:1030900002A90B48FDF7DBFB41F2883201A9084881
:1030A000FDF788FD9DF8040000049DF8051040EA36
:1030B00001209DF8061040EA0104204610B010BD22
:1030C000A800002000B58FB04FF48070079000205A
:1030D000089009900C900D900E900A900690662032
:1030E000019041F2883201A91048FDF7B0FB18B1F8
:1030F0004FF0FF300FB000BDFFF72AFF10B16FF0A7
:103100000200F7E79920019041F2883201A90748AF
:10311000FDF79DFB10B14FF0FF30EBE7FFF718FF15
:1031200010B16FF00200E5E70020E3E7A8000020FF
:103130002DE9F04104460E4617469846069D12E0DA
:10314000681C80B1FDF74CFAA0EB0800A84200D83B
:103150004DB9042084F84100606C40F001006064C7
:103160000120BDE8F08120688068304008B101206E
:1031700000E00020B842E3D10020F2E72DE9F04161
:1031800004460E4600275548006800F00300032857
:1031900002D10120BDE8F08150482838006820F0B5
:1031A00080604E4928390860FDF71AFA054606E0A6
:1031B000FDF716FA401B022801D90320EAE7474829
:1031C00028380068C0F3C0600028F1D100BF434830
:1031D000006820F47C30216840EA01303F490860F3
:1031E000A088401EC0F30800A168491E4FF47E422B
:1031F00002EA41210843A189491ED20102EA0141A4
:103200000843217C491E120202EA01610843334946
:103210001031086000BF3148001D006820F0C00078
:10322000616908432D49091D08600846006820F0BF
:103230002000A16908432949091D08600846006863
:1032400020F0100008602548143000684FF6F8712F
:103250008843E16940EAC1002049143108601F48F1
:10326000001D006840F010001C49091D08602EB9BF
:103270000846006840F40020086012E0012E08D1E2
:103280001648001D006840F480101449091D0860AC
:1032900007E01248001D006840F400100F49091DA6
:1032A00008600E482838006840F080600B492839D3
:1032B0000860FDF795F9054606E0FDF791F9401B1A
:1032C000022801D9032065E7044828380068C0F3C4
:1032D000C0600028F1D038465CE70000284402585E
:1032E0002DE9F04104460E4600275548006800F0DD
:1032F0000300032802D10120BDE8F081504828389E
:10330000006820F080504E4928390860FDF768F9C0
:10331000054606E0FDF764F9401B022801D90320A9
:10332000EAE7474828380068C0F340700028F1D128
:1033300000BF4348006820F07C70218840EA0150BB
:103340003F490860A088401EC0F30800A168491EDC
:103350004FF47E4202EA41210843A189491ED2016D
:1033600002EA01410843217C491E120202EA01617E
:10337000084333491831086000BF3148001D006818
:1033800020F44060616908432D49091D0860084622
:10339000006820F40070A16908432949091D0860EC
:1033A0000846006820F48070086025481C300068DA
:1033B0004FF6F8718843E16940EAC10020491C31A9
:1033C00008601F48001D006840F480701C49091DFA
:1033D00008602EB90846006840F48000086012E0DA
:1033E000012E08D11648001D006840F40000144961
:1033F000091D086007E01248001D006840F0807059
:103400000F49091D08600E482838006840F08050B8
:103410000B4928390860FDF7E3F8054606E0FDF79B
:10342000DFF8401B022801D9032065E7044828384B
:103430000068C0F340700028F1D038465CE7000017
:103440002844025810B50023244C236000BF00BF5D
:1034500000BFBFF34F8F00BF00BF00BF1F4B703BCB
:103460001B6823F480331D4C703C236000BF00BFF9
:1034700000BFBFF34F8F00BF00BF00BF174B1B1F24
:103480001868C0F34E3100BFC0F3C90200BF43F655
:10349000E07303EA41134FF0404404EA827423438B
:1034A0000F4C236000BF00BF131EA2F10102EED13A
:1034B0000B1EA1F10101E7D100BF00BF00BFBFF3A8
:1034C0004F8F00BF00BF00BF00BF00BF00BFBFF3F2
:1034D0006F8F00BF00BF00BF10BD000084ED00E093
:1034E00074EF00E010B50023234C236000BF00BF41
:1034F00000BFBFF34F8F00BF00BF00BF231F18687E
:10350000C0F34E3100BFC0F3C90200BF43F6E07301
:1035100003EA41134FF0404404EA82742343174CFA
:10352000236000BF00BF131EA2F10102EED10B1EEB
:10353000A1F10101E7D100BF00BF00BFBFF34F8F72
:1035400000BF00BF00BF0C4B703B1B6843F48033CF
:10355000094C703C236000BF00BF00BFBFF34F8F1A
:1035600000BF00BF00BF00BF00BF00BFBFF36F8F31
:1035700000BF00BF00BF10BD84ED00E060EF00E0C1
:1035800000BF00BF00BFBFF34F8F00BF00BF00BF31
:1035900000BF00BF00BFBFF36F8F00BF00BF00BF01
:1035A00000201449086000BF00BF00BFBFF34F8F69
:1035B00000BF00BF00BF00BF00BF00BFBFF36F8FE1
:1035C00000BF00BF00BF0C48006840F400300A494B
:1035D000086000BF00BF00BFBFF34F8F00BF00BF38
:1035E00000BF00BF00BF00BFBFF36F8F00BF00BFB1
:1035F00000BF704750EF00E014ED00E0704710B5D9
:10360000FCF7F4FF10BD000000B5CBB04C2138A88A
:10361000FCF796FE202130A8FCF792FEBC2101A801
:10362000FCF78EFE3448006820F004003249086040
:1036300000BF002000903148006820F001002F49B1
:1036400008600846006800F0010000902A480C302D
:10365000006840F4404028490C3108600846006882
:1036600000F44040009000BF00BF00BF22480C3073
:10367000006800F40050B0F5005FF7D101203890E9
:103680000004399002204190022138A8816205216E
:10369000C162A0210163022141638163C1630C21E6
:1036A0000164002141648164FEF7BAFD08B1FCF7B2
:1036B00086FE3F2030900320319000203290082079
:1036C0003390402034903590000136904020379060
:1036D000042130A8FEF7B4FA08B1FCF770FE0848E0
:1036E0000190002013901F9001A8FDF719FD08B16B
:1036F000FCF765FE4BB000BD0C4802582C04005886
:10370000010000022448006840F47000224908606B
:103710002248006840F001002049086000201F494D
:10372000103108601D4800681D4908401B490860A9
:1037300000201A4918310860091D0860091D086039
:10374000164928310860091D0860091D0860091D17
:103750000860091D0860091D0860091D0860091D31
:1037600008600E48006820F480200C4908600020A2
:103770000A49603108600B4800686FF30F00B0F130
:10378000005F02D20120084908604FF00060024942
:10379000803908607047000088ED00E0004402585E
:1037A0007FEDF6EA0010005C088100517FB517A696
:1037B00060CECDE9025617A660CECDE90056456E23
:1037C0002DB90125A0F86A50A0F868501CE0082324
:1037D00008240568AD68C5F342610568AD686A0FE5
:1037E00002ADAD5C15FB04F51DF8026095FBF6F526
:1037F000A0F86A5002AD6D5C15FB03F51DF8016081
:1038000095FBF6F5A0F868507FBD000001010103AB
:1038100007010000080402040801010190F82810C3
:1038200001F0010139B10168496821F40031C26A2F
:1038300011430268516090F8281001F0020102293A
:1038400007D10168496821F48031026B1143026895
:10385000516090F8281001F00401042907D1016893
:10386000496821F48021426B11430268516090F84D
:10387000281001F00801082907D10168496821F4DE
:103880000041826B11430268516090F8281001F0EA
:103890001001102907D10168896821F48051C26B99
:1038A00011430268916090F8281001F0200120294E
:1038B00007D10168896821F40051026C1143026844
:1038C000916090F8281001F04001402913D101685F
:1038D000496821F48011426C114302685160416CC7
:1038E000B1F5801F07D10168496821F4C001826CDD
:1038F00011430268516090F8281001F0800180297E
:1039000007D10168496821F40021C26C11430268A3
:103910005160704738B504460020C4F88800FCF7B1
:103920005FFE05462068006800F0080008280CD1FA
:103930006FF07E402B4600224FF40011009020468D
:1039400001F09AFB08B1032038BD2068006800F040
:10395000040004280CD16FF07E402B4600224FF467
:1039600080010090204601F087FB08B10320EBE7BF
:103970002020C4F88000C4F8840000BF002084F830
:103980007C0000BF00BFDFE72DE9F04F89B004469F
:103990004FF00009002007908346F94920688842CB
:1039A00000D100E000BF2169A068084361690843B5
:1039B000E16940EA010A606E40EA0A0A206800688C
:1039C000F049084040EA0A00216808602068406821
:1039D00020F44050E168084321684860D4F818A0FA
:1039E000E7492068884202D0206A40EA0A0A206833
:1039F0008068E549084040EA0A002168886020683C
:103A0000C06A20F00F00616A08432168C86200BFE5
:103A1000DE492068884220D1DD48006800F0380087
:103A2000182811D005DC48B1082809D0102811D178
:103A300008E020280AD028280CD109E001250BE055
:103A4000042509E0082507E0102505E0202503E00E
:103A5000402501E0802500BFF8E0CE49206888427B
:103A600019D1CB48006800F00700062810D2DFE823
:103A700000F0030507090B0D00250BE0042509E004
:103A8000082507E0102505E0202503E0402501E09A
:103A9000802500BFDAE0C0492068884219D1BC48BF
:103AA000006800F00700062810D2DFE800F00305E8
:103AB00007090B0D00250BE0042509E0082507E0A8
:103AC000102505E0202503E0402501E0802500BF0A
:103AD000BCE0B2492068884219D1AD48006800F0C6
:103AE0000700062810D2DFE800F0030507090B0DD8
:103AF00000250BE0042509E0082507E0102505E076
:103B0000202503E0402501E0802500BF9EE0A44978
:103B10002068884219D19E48006800F007000628F6
:103B200010D2DFE800F0030507090B0D00250BE0BC
:103B3000042509E0082507E0102505E0202503E01D
:103B4000402501E0802500BF80E09649206888423A
:103B500020D18F48006800F03800182811D005DC0B
:103B600048B1082809D0102811D108E020280AD02F
:103B700028280CD109E001250BE0042509E00825DF
:103B800007E0102505E0202503E0402501E0802521
:103B900000BF5BE084492068884219D17C480068F6
:103BA00000F00700062810D2DFE800F0030507093F
:103BB0000B0D00250BE0042509E0082507E0102582
:103BC00005E0202503E0402501E0802500BF3DE021
:103BD00076492068884219D16D48006800F00700D6
:103BE000062810D2DFE800F0030507090B0D0025B9
:103BF0000BE0042509E0082507E0102505E0202555
:103C000003E0402501E0802500BF1FE05C492068FB
:103C100088421AD15E48001D006800F0070006289F
:103C200010D2DFE800F0030507090B0D02250BE0B9
:103C3000042509E0082507E0102505E0202503E01C
:103C4000402501E0802500BF00E0802500BF4C49F1
:103C50002068884271D1102D70D006DC022D09D069
:103C6000042D49D0082D6AD1A6E0202D68D0402D22
:103C7000F9D1B3E1FDF712F8616A09B9012138E021
:103C8000616A012901D1022133E0616A022901D16F
:103C900004212EE0616A032901D1062129E0616A2D
:103CA000042901D1082124E0616A052901D10A21F2
:103CB0001FE0616A062901D10C211AE0616A072917
:103CC00001D1102115E0616A082901D1202110E0FD
:103CD000616A092901D140210BE0616A0A2901D1F9
:103CE000802106E0616A0B2902D14FF4807100E067
:103CF0000121B0FBF1FBB6E104A8FCF7E1FF059858
:103D0000616A09B9012154E0616A012901D10221E6
:103D10004FE0616A022901D104214AE0616A032966
:103D200001D1062145E0616A042901D1082140E062
:103D3000616A052905D10A213BE0FDE380E08FE1BE
:103D40000BE1616A062901D10C2132E0616A072981
:103D500001D110212DE0616A082901D1202128E03C
:103D6000616A092901D1402123E0616A0A2901D150
:103D700080211EE0616A0B291AD14FF4807118E08E
:103D8000000C0058F369FFCFFFF4FF110010014051
:103D9000544402580044004000480040004C004099
:103DA000005000400014014000780040007C0040BA
:103DB0000121B0FBF1FB56E101A8FDF799F802984B
:103DC000616A09B9012138E0616A012901D1022142
:103DD00033E0616A022901D104212EE0616A0329DE
:103DE00001D1062129E0616A042901D1082124E0DA
:103DF000616A052901D10A211FE0616A062901D102
:103E00000C211AE0616A072901D1102115E0616ACD
:103E1000082901D1202110E0616A092901D140213E
:103E20000BE0616A0A2901D1802106E0616A0B2951
:103E300002D14FF4807100E00121B0FBF1FB12E1EF
:103E4000FA480068C0F3401088B3F8480068C0F32F
:103E5000C101F748C840616A09B9012139E0616AC6
:103E6000012901D1022134E0616A022901D1042132
:103E70002FE0616A032901D106212AE0616A042941
:103E800001D1082125E0616A052901D10A2120E03C
:103E9000616A062901D10C211BE0616A072901D161
:103EA000102116E0616A082902D1202111E013E0F7
:103EB000616A092901D140210BE0616A0A2901D117
:103EC000802106E0616A0B2902D14FF4807100E085
:103ED0000121B0FBF1FB3FE0606A08B9012038E046
:103EE000606A012801D1022033E0606A022801D112
:103EF00004202EE0606A032801D1062029E0606AD0
:103F0000042801D1082024E0606A052801D10A2094
:103F10001FE0606A062801D10C201AE0606A0728B9
:103F200001D1102015E0606A082801D1202010E09E
:103F3000606A092801D140200BE0606A0A2801D19B
:103F4000802006E0606A0B2802D14FF4807000E008
:103F50000120B749B1FBF0FB85E0606A08B9012098
:103F600038E0606A012801D1022033E0606A02284B
:103F700001D104202EE0606A032801D1062029E047
:103F8000606A042801D1082024E0606A052801D174
:103F90000A201FE0606A062801D10C201AE0606A3E
:103FA000072801D1102015E0606A082801D12020DF
:103FB00010E0606A092801D140200BE0606A0A28FD
:103FC00001D1802006E0606A0B2802D14FF4807096
:103FD00000E001209749B1FBF0FB44E0606A08B9BA
:103FE000012038E0606A012801D1022033E0606AD4
:103FF000022801D104202EE0606A032801D10620A6
:1040000029E0606A042801D1082024E0606A0528BC
:1040100001D10A201FE0606A062801D10C201AE0B5
:10402000606A072801D1102015E0606A082801D1D4
:10403000202010E0606A092801D140200BE0606A6E
:104040000A2801D1802006E0606A0B2802D14FF4D3
:10405000807000E001204FF40041B1FBF0FB02E072
:104060000120079000BF00BFBBF1000F00F0F287F6
:10407000606800EB4000584503D86068000358456D
:1040800003D20120079000F0E5BF102D75D006DCAB
:10409000022D09D0042D67D0082D6FD1CCE0202D42
:1040A0006DD0402DF9D14DE2FCF7F8FD8046606AF5
:1040B00008B9012238E0606A012801D1022233E008
:1040C000606A022801D104222EE0606A032801D12F
:1040D000062229E0606A042801D1082224E0606AEF
:1040E000052801D10A221FE0606A062801D10C22AE
:1040F0001AE0606A072801D1102215E0606A0828DA
:1041000001D1202210E0606A092801D140220BE091
:10411000606A0A2801D1802206E0606A0B2802D179
:104120004FF4807200E00122944600234046194675
:10413000FCF7CEF84FF4807300228C46A0FB031EE0
:104140000CFB03E300FB0233606840088C461CEB69
:10415000000643EB0201D4F804C062460023304657
:10416000FCF7B6F881464EE204A8FCF7A9FDDDF89D
:1041700014E0606A20B901223BE0BFE040E282E146
:10418000606A012801D1022233E0606A022801D16D
:1041900004222EE0606A032801D1062229E0606A29
:1041A000042801D1082224E0606A052801D10A22EE
:1041B0001FE0606A062801D10C221AE0606A072815
:1041C00001D1102215E0606A082801D1202210E0F8
:1041D000606A092801D140220BE0606A0A2801D1F7
:1041E000802206E0606A0B2802D14FF4807200E062
:1041F00001229446002370461946FCF769F84FF4F3
:10420000807C0022A0FB0C3E01FB0CE100FB0211B4
:10421000606840081E185141D4F804C0624600236B
:104220003046FCF755F88146EDE1000000440258A5
:104230000090D00300093D0001A8FCF759FEDDF80D
:1042400008C0606A08B9012238E0606A012801D11B
:10425000022233E0606A022801D104222EE0606A63
:10426000032801D1062229E0606A042801D108222E
:1042700024E0606A052801D10A221FE0606A06284E
:1042800001D10C221AE0606A072801D1102215E042
:10429000606A082801D1202210E0606A092801D153
:1042A00040220BE0606A0A2801D1802206E0606AA1
:1042B0000B2802D14FF4807200E0012296460023C1
:1042C00060461946FCF704F84FF4807300228C46D0
:1042D000A0FB031E0CFB03E300FB023360684008F5
:1042E0008C461CEB000643EB0201D4F804C0624686
:1042F00000233046FBF7ECFF814684E1F848006874
:10430000C0F3401090B3F6480068C0F3C101F5480F
:1043100020FA01FE606A08B9012239E0606A0128CA
:1043200001D1022234E0606A022801D104222FE088
:10433000606A032801D106222AE0606A042801D1BC
:10434000082225E0606A052801D10A2220E0606A7F
:10435000062801D10C221BE0606A072801D1102237
:1043600016E0606A082802D1202211E030E0606A7D
:10437000092801D140220BE0606A0A2801D180227D
:1043800006E0606A0B2802D14FF4807200E001223F
:104390009446002370461946FBF79AFF4FF480734A
:1043A00000228C46A0FB031E0CFB03E300FB023340
:1043B000606840088C461CEB000643EB0201D4F811
:1043C00004C0624600233046FBF782FF814659E075
:1043D000606A08B9012238E0606A012801D102222E
:1043E00033E0606A022801D104222EE0606A0328CB
:1043F00001D1062229E0606A042801D1082224E0C4
:10440000606A052801D10A221FE0606A062801D1EE
:104410000C221AE0606A072801D1102215E0606AB8
:10442000082801D1202210E0606A092801D1402229
:104430000BE0606A0A2801D1802206E0606A0B283E
:1044400002D14FF4807200E0012294460023A54877
:104450001946FBF73DFF4FF4807300228C46A0FB0A
:10446000031E0CFB03E300FB0233606840080E18D8
:1044700043EB0201D4F804C0624600233046FBF748
:1044800027FF8146BFE0606A08B9012238E0606A10
:10449000012801D1022233E0606A022801D10422FE
:1044A0002EE0606A032801D1062229E0606A042810
:1044B00001D1082224E0606A052801D10A221FE008
:1044C000606A062801D10C221AE0606A072801D12F
:1044D000102215E0606A082801D1202210E0606AED
:1044E000092801D140220BE0606A0A2801D180220C
:1044F00006E0606A0B2802D14FF4807200E00122CE
:104500009446002378481946FBF7E2FE4FF4807387
:1045100000228C46A0FB031E0CFB03E300FB0233CE
:10452000606840088C461CEB000643EB0201D4F89F
:1045300004C06246002300E073E03046FBF7C8FE8B
:10454000814660E0606A08B9012238E0606A0128AB
:1045500001D1022233E0606A022801D104222EE058
:10456000606A032801D1062229E0606A042801D18B
:10457000082224E0606A052801D10A221FE0606A4F
:10458000062801D10C221AE0606A072801D1102206
:1045900015E0606A082801D1202210E0606A09282D
:1045A00001D140220BE0606A0A2801D1802206E096
:1045B000606A0B2802D14FF4807200E00122944619
:1045C00000234FF400401946FBF782FE4FF480733E
:1045D00000228C46A0FB031E0CFB03E300FB02330E
:1045E000606840088C461CEB000643EB0201D4F8DF
:1045F00004C0624600233046FBF76AFE814602E0B3
:104600000120079000BF00BFB9F5407F06D3B9F580
:10461000801F03D22068C0F80C9034E50120079079
:1046200031E5E069B0F5004F71D1082D70D005DC9F
:104630005DB1012D5AD0042D6BD1A7E0102D69D0AA
:10464000202D68D0402DF7D11EE2FDF7AFFC80464B
:10465000606A08B9012038E0606A012801D10220AF
:1046600033E0606A022801D104202EE0606A03284A
:1046700001D1062029E0606A042801D1082024E045
:10468000606A052801D10A201FE0606A062801D16E
:104690000C201AE0606A072801D1102015E0606A3A
:1046A000082801D1202010E0606A092801D14020AB
:1046B0000BE0606A0A2801D1802006E0606A0B28BE
:1046C00002D14FF4807000E00120B8FBF0F0400010
:1046D000616800EB5100B0FBF1F01FFA80F920E2B5
:1046E000004402580090D00300093D00FDF770FC23
:1046F0008046606A08B901203DE0606A012801D166
:10470000022038E0606A022806D1042033E020E26B
:1047100088E003E2D2E06EE1606A032801D106205E
:1047200029E0606A042801D1082024E0606A052895
:1047300001D10A201FE0606A062801D10C201AE08E
:10474000606A072801D1102015E0606A082801D1AD
:10475000202010E0606A092801D140200BE0606A47
:104760000A2801D1802006E0606A0B2802D14FF4AC
:10477000807000E00120B8FBF0F04000616800EBC1
:104780005100B0FBF1F01FFA80F9CAE104A8FCF770
:1047900097FA0598616A09B9012138E0616A01292F
:1047A00001D1022133E0616A022901D104212EE006
:1047B000616A032901D1062129E0616A042901D136
:1047C000082124E0616A052901D10A211FE0616AFC
:1047D000062901D10C211AE0616A072901D11021B3
:1047E00015E0616A082901D1202110E0616A0929D8
:1047F00001D140210BE0616A0A2901D1802106E044
:10480000616A0B2902D14FF4807100E00121B0FBF5
:10481000F1F04000616800EB5100B0FBF1F01FFACD
:1048200080F97EE101A8FCF763FB0298616A09B98F
:10483000012138E0616A012901D1022133E0616A76
:10484000022901D104212EE0616A032901D1062148
:1048500029E0616A042901D1082124E0616A05295F
:1048600001D10A211FE0616A062901D10C211AE059
:10487000616A072901D1102115E0616A082901D177
:10488000202110E0616A092901D140210BE0616A11
:104890000A2901D1802106E0616A0B2902D14FF477
:1048A000807100E00121B0FBF1F04000616800EB95
:1048B0005100B0FBF1F01FFA80F932E1F9480068CD
:1048C000C0F3401088B3F7480068C0F3C101F64850
:1048D000C840616A09B9012139E0616A012901D141
:1048E000022134E0616A022901D104212FE0616ACA
:1048F000032901D106212AE0616A042901D1082196
:1049000025E0616A052901D10A2120E0616A0629B2
:1049100001D10C211BE0616A072901D1102116E0A9
:10492000616A082902D1202111E01BE0616A09298E
:1049300001D140210BE0616A0A2901D1802106E002
:10494000616A0B2902D14FF4807100E00121B0FBB4
:10495000F1F04000616800EB5100B0FBF1F01FFA8C
:1049600080F947E0606A08B9012038E0606A0128F0
:1049700001D1022033E0606A022801D104202EE038
:10498000606A032801D1062029E0606A042801D169
:10499000082024E0606A052801D10A201FE0606A2F
:1049A000062801D10C201AE0606A072801D11020E6
:1049B00015E0606A082801D1202010E0606A09280B
:1049C00001D140200BE0606A0A2801D1802006E076
:1049D000606A0B2802D14FF4807000E00120B249D8
:1049E000B1FBF0F04000616800EB5100B0FBF1F06A
:1049F0001FFA80F995E0606A08B9012038E0606A22
:104A0000012801D1022033E0606A022801D104208C
:104A10002EE0606A032801D1062029E0606A04289C
:104A200001D1082024E0606A052801D10A201FE096
:104A3000606A062801D10C201AE0606A072801D1BB
:104A4000102015E0606A082801D1202010E0606A7B
:104A5000092801D140200BE0606A0A2801D180209A
:104A600006E0606A0B2802D14FF4807000E001205C
:104A70008E49B1FBF0F04000616800EB5100B0FBE3
:104A8000F1F01FFA80F94CE0606A08B9012038E0C3
:104A9000606A012801D1022033E0606A022801D156
:104AA00004202EE0606A032801D1062029E0606A14
:104AB000042801D1082024E0606A052801D10A20D9
:104AC0001FE0606A062801D10C201AE0606A0728FE
:104AD00001D1102015E0606A082801D1202010E0E3
:104AE000606A092801D140200BE0606A0A2801D1E0
:104AF000802006E0606A0B2802D14FF4807000E04D
:104B000001204FF40041B1FBF0F04000616800EB80
:104B10005100B0FBF1F01FFA80F902E0012007908C
:104B200000BF00BFB9F1100F10D3B9F5803F0DD20F
:104B30004FF6F07009EA00000890C9F342010898A6
:104B40000843089008982168C86083E20120079014
:104B500080E2082D72D005DC5DB1012D53D0042D0B
:104B60006DD1A5E0102D6BD0202D6AD0402D66D1DF
:104B700017E2FDF71BFA8046606A08B9012038E0A9
:104B8000606A012801D1022033E0606A022801D165
:104B900004202EE0606A032801D1062029E0606A23
:104BA000042801D1082024E0606A052801D10A20E8
:104BB0001FE0606A062801D10C201AE0606A07280D
:104BC00001D1102015E0606A082801D1202010E0F2
:104BD000606A092801D140200BE0606A0A2801D1EF
:104BE000802006E0606A0B2802D14FF4807000E05C
:104BF0000120B8FBF0F0616800EB5100B0FBF1F070
:104C00001FFA80F919E2FDF7E3F98046606A08B9F6
:104C100001203CE0606A012801D1022037E0606A8F
:104C2000022801D1042032E0606A032801D1062065
:104C30002DE0606A042805D1082028E083E0F9E12E
:104C4000CCE066E1606A052801D10A201FE0606AB5
:104C5000062801D10C201AE0606A072801D1102033
:104C600015E0606A082801D1202010E0606A092858
:104C700001D140200BE0606A0A2801D1802006E0C3
:104C8000606A0B2802D14FF4807000E00120B8FB6D
:104C9000F0F0616800EB5100B0FBF1F01FFA80F911
:104CA000CBE10000004402580090D00300093D0011
:104CB00004A8FCF705F80598616A09B9012138E0F4
:104CC000616A012901D1022133E0616A022901D11F
:104CD00004212EE0616A032901D1062129E0616ADD
:104CE000042901D1082124E0616A052901D10A21A2
:104CF0001FE0616A062901D10C211AE0616A0729C7
:104D000001D1102115E0616A082901D1202110E0AC
:104D1000616A092901D140210BE0616A0A2901D1A8
:104D2000802106E0616A0B2902D14FF4807100E016
:104D30000121B0FBF1F0616800EB5100B0FBF1F034
:104D40001FFA80F979E101A8FCF7D2F80298616AAC
:104D500009B9012138E0616A012901D1022133E05A
:104D6000616A022901D104212EE0616A032901D17F
:104D7000062129E0616A042901D1082124E0616A41
:104D8000052901D10A211FE0616A062901D10C2100
:104D90001AE0616A072901D1102115E0616A08292A
:104DA00001D1202110E0616A092901D140210BE0E5
:104DB000616A0A2901D1802106E0616A0B2902D1CA
:104DC0004FF4807100E00121B0FBF1F0616800EB6D
:104DD0005100B0FBF1F01FFA80F92EE1A348006802
:104DE000C0F3401088B3A1480068C0F3C101A048D7
:104DF000C840616A09B9012139E0616A012901D11C
:104E0000022134E0616A022901D104212FE0616AA4
:104E1000032901D106212AE0616A042901D1082170
:104E200025E0616A052901D10A2120E0616A06298D
:104E300001D10C211BE0616A072901D1102116E084
:104E4000616A082902D1202111E01AE0616A09296A
:104E500001D140210BE0616A0A2901D1802106E0DD
:104E6000616A0B2902D14FF4807100E00121B0FB8F
:104E7000F1F0616800EB5100B0FBF1F01FFA80F92E
:104E800046E0606A08B9012038E0606A012801D173
:104E9000022033E0606A022801D104202EE0606A1B
:104EA000032801D1062029E0606A042801D10820E6
:104EB00024E0606A052801D10A201FE0606A062804
:104EC00001D10C201AE0606A072801D1102015E0FA
:104ED000606A082801D1202010E0606A092801D109
:104EE00040200BE0606A0A2801D1802006E0606A59
:104EF0000B2802D14FF4807000E001205C49B1FB27
:104F0000F0F0616800EB5100B0FBF1F01FFA80F99E
:104F100093E0606A08B9012038E0606A012801D195
:104F2000022033E0606A022801D104202EE0606A8A
:104F3000032801D1062029E0606A042801D1082055
:104F400024E0606A052801D10A201FE0606A062873
:104F500001D10C201AE0606A072801D1102015E069
:104F6000606A082801D1202010E0606A092801D178
:104F700040200BE0606A0A2801D1802006E0606AC8
:104F80000B2802D14FF4807000E001203949B1FBB9
:104F9000F0F0616800EB5100B0FBF1F01FFA80F90E
:104FA0004BE0606A08B9012038E0606A012801D14D
:104FB000022033E0606A022801D104202EE0606AFA
:104FC000032801D1062029E0606A042801D10820C5
:104FD00024E0606A052801D10A201FE0606A0628E3
:104FE00001D10C201AE0606A072801D1102015E0D9
:104FF000606A082801D1202010E0606A092801D1E8
:1050000040200BE0606A0A2801D1802006E0606A37
:105010000B2802D14FF4807000E001204FF40041D2
:10502000B1FBF0F0616800EB5100B0FBF1F01FFA4A
:1050300080F902E00120079000BF00BFB9F1100F16
:1050400006D3B9F5803F03D22068C0F80C9001E088
:10505000012007900120A4F86A00A4F8680000204D
:10506000E0662067079809B0BDE8F08F0044025859
:105070000090D00300093D002DE9F04104460D46A3
:1050800017469846069E4AE0701C002847D0FBF75A
:10509000A7FAA0EB0800B04200D8C6B920680068A3
:1050A00020F4D070216808602068806820F001003A
:1050B000216888602020C4F88000C4F8840000BF04
:1050C000002084F87C0000BF0320BDE8F081206848
:1050D000006800F0040010B32068C069C0F3C0206D
:1050E000E8B14FF40060216808622068006820F48D
:1050F000D070216808602068806820F00100216875
:1051000088602020C4F88000C4F88400C4F88800B7
:1051100000BF002084F87C0000BF0320D5E7206892
:10512000C0692840A84201D1012000E00020B84217
:10513000AAD00020C9E7000010B512481249086043
:105140004FF4E130486000210F488160C160016187
:105150000C21416100218161C16101624162002035
:10516000094988620846FDF7B6FC00210648FDF7AC
:1051700083FC00210448FDF750FC0348FDF726FCA2
:1051800010BD0000001001401C00002000BFFEE721
:105190000FB4054B10B503A9044A029800F034F887
:1051A00010BC5DF814FB0000C95400081800002072
:1051B00002480068C0F30220704700000CED00E0D8
:1051C00010B5002804DB0A07130E054A135406E045
:1051D0000A07140E034A00F00F031B1FD45410BD1E
:1051E00000E400E018ED00E002E008C8121F08C16A
:1051F000002AFAD170477047002001E001C1121F58
:10520000002AFBD1704700002DE9FF4F8DB09B466F
:105210000F460446002606E025280BD05A460F9973
:105220009047641C761C20780028F5D111B03046D8
:10523000BDE8F08F0025A8460122984900E005430B
:1052400014F8013F203B02FA03F00842F7D120781E
:105250002E2817D114F8010F45F004052A280ED086
:105260006FF02F022078A0F1300109290AD808EB4D
:10527000880102EB410100EB0108641CF2E757F8DA
:10528000048B641C20786C280DD004DC4C2812D0D0
:105290006A2811D104E074280DD07A280CD10AE0D4
:1052A00045F4001507E0617845F48015814202D18C
:1052B000641C05F58015641C2278692A45D008DC39
:1052C000002AB3D0582A69D0632A10D0642A08D1A2
:1052D0003BE0702A67D0732A13D0752A5CD0782AF5
:1052E0005CD010465A460F999047761CD3E017F8C9
:1052F000040B8DF8000000208DF80100E946012024
:1053000003E057F8049B4FF0FF3069074FF00005AA
:1053100001D40AE06D1C45450DDA8542FADB19F827
:1053200005100029F6D106E06D1C8542FCDB19F85A
:1053300005100029F8D12E4404E019F8010B5A4653
:105340000F9990476D1EF8D2A5E00A200021CDE903
:105350000801C5F3025002280DD001CFC117031E6A
:1053600071F100030DDA4FF0000CD0EB0C006CEB88
:1053700001012D2308E0FF1D27F00707F7E80201D0
:10538000EDE72B0504D52B238DF8283001233BE0D6
:10539000EB0739D02023F7E70A2000E01020002196
:1053A000CDE9080107E01020002145F00405CDE912
:1053B00008014FF00808C5F3025002280FD001CFB2
:1053C00000214FF0000A2B071FD5702A0DD0DDE910
:1053D00008C38CF0100C5CEA030C0CD015E0FF1D28
:1053E00027F00707F7E80201EBE740228DF82820B5
:1053F0004FF0010A0BE050EA010306D030238DF88C
:1054000028308DF8292002239A46582A04D024A255
:105410000DF120090B9209E026A2F9E7DDE9082346
:10542000FAF756FF0B9B9B5C09F8013D50EA01021D
:10543000F4D1ADEB090020300890680701D44FF09B
:1054400001080899884502DDA8EB010000E0002072
:105450008046002506E00AA85A46405D0F9990470D
:105460006D1C761C5545F6DB04E030205A460F993A
:105470009047761CB8F10001A8F10108F5DC05E0C1
:1054800019F8010B5A460F999047761C0899481E47
:1054900008900029F4DC641CC5E60000092801001E
:1054A000303132333435363738396162636465669A
:1054B000000000003031323334353637383941425C
:1054C000434445460000000013B50C466423012206
:1054D00069460248FDF790FB00981CBD1C000020A7
:1054E000FEF74EF8FDF7FEFFFBF78CF8FEF78CF8A1
:1054F000FDF7EEFBFFF720FE26A0FFF749FEFDF7C4
:1055000053FDFDF785FD00BF00BF00BF00BF00BF1A
:10551000BFF34F8F00BF00BF00BF00BF00BF00BF81
:10552000BFF36F8F00BF00BF00BF2548006820F4A5
:1055300000302349086000202249086000BF00BFF6
:1055400000BFBFF34F8F00BF00BF00BF00BF00BF51
:1055500000BFBFF36F8F00BF00BF00BF00BFFDF7EC
:1055600071FF00204FF0E0210861486188614FF031
:1055700010404068144908604FF01041086880F3FB
:10558000088800BF11A0FFF703FE0F48006880479E
:1055900000BFFEE70D0A2A2A2A2A2A2A2A2A2A2AAC
:1055A0002A2A2A2A2A2A2A2A2A2A2A2A2A2A2A2A5B
:1055B0002A2A2A2A2A2A2A2A2A2A2A2A2A0D0A00B2
:1055C00014ED00E050EF00E000000020CCF8D7AA76
:1055D000B5BD573235513634D4CBD0D0D3C3BBA7A9
:1055E000B3CCD0F23E3E3E0D0A0D0A000000000092
:1055F0000102030401020304060708091C560008FF
:10560000000000201C000000E85100083856000887
:105610001C000020DC040000F8510008000000001D
:105620000000000010000000010000000090D00306
:085630000090D003000000000F
:040000050800029954
:00000001FF
