:0200000490006A
:10000000A8D10024F5040090D101019061F6009080
:10001000CD0101906D400090B143019000000000BF
:100020000000000000000000000000003504009007
:10003000CD46009000000000910400904122019004
:100040000F0500900F0500900F0500900F05009020
:100050000F0500900F0500900F0500900F05009010
:100060000F0500900F0500900F05009001410090D2
:100070001141009021410090314100904141009098
:100080000F0500900F0500900F0500900F050090E0
:100090000F0500900F0500900F0500900F050090D0
:1000A0000F0500900F0500900F0500900F050090C0
:1000B0000F0500900F0500900F0500900F050090B0
:1000C0000F0500900F0500900F0500900F050090A0
:1000D0000F0500905D3C01900F050090A53C01903C
:1000E0000F0500900F050090000000000F05009024
:1000F0000F0500900F0500900F0500900F05009070
:100100000F0500900F0500900F0500900F0500905F
:100110000F0500900F0500900F0500900F0500904F
:100120000F0500900F0500900F0500900F0500903F
:100130000F0500900F0500900F0500900F0500902F
:1001400000000000000000000000000000000000AF
:100150000F0500900F0500900F0500900F0500900F
:100160000F0500900F0500900F0500900F050090FF
:100170000F0500900F0500900F0500900F050090EF
:100180000F0500900F0500900F0500900F050090DF
:100190000F0500900F0500900F0500900F050090CF
:1001A0008DF700907DF70090514100900F05009071
:1001B0000F0500900F0500900F0500900F050090AF
:1001C0000F0500900F0500900F0500900F0500909F
:1001D0000F0500900F0500900F0500900F0500908F
:1001E0000F0500900F0500900F0500900F0500907F
:1001F0000F0500900F0500900F0500900F0500906F
:100200000F0500900F0500900F0500900F0500905E
:100210000F0500900F050090492401900F050090F4
:100220000F0500900F0500900F05009000000000E2
:100230000F0500900F050090000000000F050090D2
:100240000F0500900F0500900F0500900F0500901E
:100250000F0500900F0500900F0500900F0500900E
:100260000F0500900F0500900F0500900F050090FE
:100270000F0500900F0500900F0500900000000092
:100280000F0500900F0500900F0500900000000082
:10029000000000000F05009000F002F800F0BBF82D
:1002A0000AA090E8000C82448344AAF10107DA45D1
:1002B00001D100F0B0F8AFF2090EBAE80F0013F068
:1002C000010F18BFFB1A43F0010318475CB7090080
:1002D0007CB709000A444FF0000C10F8013B13F002
:1002E000070408BF10F8014B1D1108BF10F8015B8F
:1002F000641E05D010F8016B641E01F8016BF9D182
:1003000013F0080F1EBF10F8014BAD1C0C1B09D1D8
:100310006D1E58BF01F801CBFAD505E014F8016B4A
:1003200001F8016B6D1EF9D59142D6D370470000DC
:100330000023002400250026103A28BF78C1FBD8EE
:10034000520728BF30C148BF0B6070476E2900F0CC
:100350004D85702900F08F86662921F0228365295A
:1003600021F01F83672921F01C83612921F01B8361
:1003700003681B0A28BF41F08001692900F0FA8454
:10038000642900F0F784752900F0F4846F2900F0E7
:100390001C86782900F05B86E92900F0B785E429FE
:1003A00000F0B485F52900F0B185EF2900F0198639
:1003B000F82900F05A860368DB0928BF41F0800164
:1003C000632901F09B87732901F0A087E32901F0DD
:1003D000AB87F32901F0B087002070471FB521F0EB
:1003E000D8FA9DE8030000F02DFC01F02BFB04007F
:1003F0000020002121F094F8401C606000200021C2
:1004000021F0A4F8E06000F0DDFB1FBD10B5002076
:1004100001F0B0FA10BD02F061FC1146FFF7DEFFFB
:100420001CF0A6FF02F036FD03B4FFF7EFFF03BC9C
:1004300000F0DAFB2C4B19680868B0E8F04F80F345
:100440000988BFF36F8F4FF0000080F31188704769
:100450000000000008480068006880F308884FF03A
:10046000000080F3148862B661B6BFF34F8FBFF30C
:100470006F8F00DF00BF00BF08ED00E0DFF80C0069
:10048000016841F470010160704700BF88ED00E031
:10049000EFF30980BFF36F8F134B1A681EF0100F34
:1004A00008BF20ED108A20E9F04F106009B44FF02A
:1004B000500080F31188BFF34F8FBFF36F8F1FF091
:1004C0008FFE4FF0000080F3118809BC196808689E
:1004D000B0E8F04F1EF0100F08BFB0EC108A80F3A8
:1004E0000988BFF36F8F704780000024EFF3058009
:1004F000704700000948804709480047FEE7FEE7CB
:10050000FEE7FEE7FEE7FEE7FEE7FEE7FEE7FEE7C3
:1005100004480549054A064B7047000045230190F1
:1005200099020090A8B10024A8D10024A8C10024F9
:10053000A8C1002470B5064600F064FB056806F10A
:100540000B0020F00704B4429CBF002070BD2B4676
:100550006A68BAB11068A04210D304F10801884259
:100560003CBF5068586007D351681019416011684A
:10057000091B016058601460101D70BD134652685D
:10058000002AE7D12146284600F048FB0028DED1AA
:1005900070BD70B50446051F00F034FB0068002CE8
:1005A00014BF446870BD002C18BFAC423CBF20464D
:1005B0006468F8D301680A18AA4218BF456003D1DD
:1005C0002A6805461144016028684119A1421CBFF0
:1005D0006C6070BD6168696021680844286070BD06
:1005E00070B50D460646041F00F00CFBD0F800C0A5
:1005F000C5B1E6B105F10B0020F00703AB423CBFEB
:10060000002070BD2068984238BFDCF8042013D366
:10061000C11A08292FD3E01840F8041B2360FFF704
:10062000B8FF28E03046FFF7B4FF002070BD284631
:10063000BDE87040FFF77EBF002A18BFA2423CBF52
:1006400094465268F8D30119914216D111680844B2
:10065000984212D3C11A08293CBF2060506808D3C1
:100660005168E0184160216812681144C91A01609C
:100670002360CCF80400201D70BD181FFFF75AFF3F
:10068000050007D021680A1F211D00F0F6F9201D82
:10069000FFF77FFF284670BD53EA020C00F0698027
:1006A0002DE9F04B4FF00006002B1FBFB3FA83F586
:1006B00003FA05F424FA05F65E4012BF1643B2FAB7
:1006C00082F502FA05F4C5F120051EBF22FA05FCE9
:1006D00044EA0C04203556EA044C4FEA144418BF8F
:1006E000641C4FF000084FF00009904271EB030CBE
:1006F00039D3002919BFB1FA81F701FA07F6B0FA28
:1007000080F700FA07F6C7F120071EBF20FA07FCA2
:1007100046EA0C062037B6FBF4FCA7EB0507103FB2
:1007200007F01F0BCBF120060CFA0BFB2CFA06F698
:1007300044BFB3460026202FA4BF5E464FF0000BF7
:100740005BEA060C08BF4FF0010B19EB0B09ABFB82
:10075000027C48EB0608C01B06FB02CC0BFB03CC5B
:1007600071EB0C01C1E70B46024641464846BDE825
:10077000F08B13B54FF000004FF00001AFF3008095
:10078000BDE81C40704710B5044600F033FA00681D
:10079000005DC00602D504F1200010BD204610BD4A
:1007A0000FB41CB5084B06AA7B4469460090059817
:1007B00000F035FB04460020694600F043FB20466C
:1007C0001CBC5DF814FB0000990600000FB400B5D6
:1007D0008DB010A9099000910B904FF0FF300A9056
:1007E00000200C90064878440690064878446A46F3
:1007F00007900F9909A800F0D5FE0DB05DF814FB25
:10080000DB0D0000F30D000010B5002001F0D3F85F
:10081000FFF7FCFDBDE81040012000F0E5B92DE92F
:10082000F041074615460E461020FFF783FE0400F0
:100830000AD06760C4E9026500F0E8F90168216048
:1008400004600020BDE8F0810120FBE70EB50546FD
:1008500014460E4613A001F0BCF8284601F0B9F882
:1008600016A001F0B6F8304601F0B3F815A001F07B
:10087000B0F800218DF80B100A210DF10A008DF857
:100880000A1008E094FBF1F201FB124294FBF1F430
:10089000303200F8012D002CF4DC01F09AF8FFF75B
:1008A000B3FF00002A2A2A20617373657274696F8E
:1008B0006E206661696C65643A2000002C206669D0
:1008C0006C6520002C206C696E65200040EA0103F5
:1008D000024630B59B0710D14FF0013400E008C24A
:1008E00008C91D1B9D4315EAC41FF8D013F0FF0172
:1008F00002F8011B0DD01B0AF8E711F8013B002B91
:1009000002F8013B05D011F8013B002B02F8013B36
:10091000F3D130BD10B5431C02E010F8011B71B1DA
:100920008107FAD14FF0013202C88C1A8C4314EAC5
:10093000C211F9D0C01A0A0603D0C01E10BDC01AD9
:1009400010BD0A0401D0801E10BD0902FCD0401E5B
:1009500010BD40EA010370B59B072ED14FF0013660
:10096000042A2AD308C810C99D1B9D43121F15EAEB
:10097000C61517D0D8B2E1B2401A50EA056110D1BD
:1009800098B2A1B2401A50EA05410AD123F07F4043
:1009900024F07F41401A50EA052102D1180EA0EB45
:1009A000146070BDA342DBD018BA21BA884201D9C5
:1009B000012070BD4FF0FF3070BD0AB9002070BD3E
:1009C00010F8013B11F8014B63B1A3420AD1521E4A
:1009D00008D010F8013B11F8014B1BB1A34201D123
:1009E000521EEDD1181B70BD032A40F2308010F06A
:1009F000030C00F0158011F8013BBCF1020F6244BA
:100A000098BF11F801CB00F8013B38BF11F8013B4A
:100A1000A2F1040298BF00F801CB38BF00F8013BF7
:100A200011F0030300F02980083AC0F0088051F863
:100A3000043B083A51F804CBA0E80810F5E7121D72
:100A40005CBF51F8043B40F8043BAFF30080D20791
:100A500024BF11F8013B11F801CB48BF11F8012B5D
:100A600024BF00F8013B00F801CB48BF00F8012B80
:100A7000704701B5FFF7B8FF01BD10B5203AC0F0CF
:100A80000B80B1E81850203AA0E81850B1E818508F
:100A9000A0E81850BFF4F5AF5FEA027C24BFB1E8CC
:100AA0001850A0E8185044BF18C918C0BDE810403D
:100AB0005FEA827C24BF51F8043B40F8043B08BF46
:100AC0007047D20728BF31F8023B48BF11F8012B0D
:100AD00028BF20F8023B48BF00F8012B704701F007
:100AE000FF03114601B543EA032242EA024200F045
:100AF0007CFF01BD02F0FF0343EA032242EA024207
:100B000000F073BF4FF0000200B5134694469646BE
:100B1000203922BFA0E80C50A0E80C50B1F1200110
:100B2000BFF4F7AF090728BFA0E80C5048BF0CC0BE
:100B30005DF804EB890028BF40F8042B08BF70471C
:100B400048BF20F8022B11F0804F18BF00F8012B8E
:100B5000704700004FF0013C50F8042B51F8043B63
:100B60009A4215D1A2EB0C03934313EACC130BD199
:100B700050F8042B51F8043B9A4209D1A2EB0C0324
:100B8000934313EACC13E7D04FF00000704700BF47
:100B9000D01A01BAB1FA81F101F0180122FA01F07C
:100BA000CB40C1F12001DBB2C0B2C01A2CFA01F374
:100BB000D11A914311EAC311E6D1704770477047CB
:100BC0007047000070B5064C7C44064D7D4403E040
:100BD000206820448047241DAC42F9D170BD00003C
:100BE000D0AF0900DCAF090001491820ABBEFEE719
:100BF0002600020010B500F025FF001D10BD00BF4B
:100C00002109020000487047F4AD002400487047F5
:100C100024AE0024704770477047704738B50446CB
:100C20000A4600206946AFF30080002808BF38BD9F
:100C300002460099204600F009FF012038BD01203E
:100C400002F02CB8F8B5AFF30080054600200C4642
:100C5000102000BF0646A819A0420DD932466946A9
:100C60000020AFF30080070008BF02F017F80098DB
:100C7000A04218BF0546C419FFF7C4FF0560074628
:100C8000F01D20F007004619284600F00AF8B4428B
:100C900008BFF8BDA21B31463868BDE8F84000F037
:100CA000D5BE00210160C0E90110704710207047D7
:100CB00070B5044685690068C10601D5302600E09C
:100CC0002026C00707D070BDD4E9012130469047E7
:100CD000206A401C20626D1EF6D570BD70B50446BA
:100CE00085690078C00707D170BDD4E901212020B3
:100CF0009047206A401C20626D1EF6D570BD0968C1
:100D00004A0501D540B27047C905FCD500B270470D
:100D100009684A0501D5C0B27047C905FCD580B243
:100D2000704770B50C460546012A05D02878800624
:100D300000D5EA69002302E0012305E05B1C934231
:100D400002D2E05C0028F9D1A869E618C01AA861AF
:100D5000286A184428622846FFF7AAFF04E0D5E96C
:100D6000012114F8010B9047B442F8D32846FFF74D
:100D7000B5FF70BD2DE9F0410646002410687529C5
:100D8000314616A510D0FFF7BAFF002802DA40421C
:100D900013A507E031688A0701D512A502E04907CB
:100DA00004D511A5012401E0FFF7B2FF00210A22BA
:100DB00006F1240709E0B0FBF2FCB0FBF2F302FB02
:100DC0001C00303078541846491C0028F3D12346C3
:100DD0002A463046BDE8F04100F0A0BE0000000009
:100DE0002D0000002B0000002000000011680268A8
:100DF000006A530501D508700AE0D30501D50880C3
:100E000006E0130603D5C217C1E9000200E008603E
:100E10000120704701694A1C02610878704700B5DB
:100E20008FB0CDE901310021059105497944CDE923
:100E300003101146684600F029F90FB000BD00000C
:100E4000E5FFFFFF0A6802F8010B0A607047000027
:100E50002DE9FF5F15468A460446DFF8AC80F8446A
:100E60000027D8E900103E46CDE9001010E03AF81E
:100E700016106A4602A801F0D4FE411C07D0217862
:100E8000890603D5E269391891420DD80744761CCA
:100E90002078800602D5E069B84205DDAE42E6DB87
:100EA0003AF816000028E2D1A069C01BA0612046D4
:100EB000FFF7FEFED8E90010CDE90010002017E092
:100EC0003AF818106A4602A801F0ABFEB0F1FF3FF5
:100ED00081460BD000250DF1080B05E0D4E9012176
:100EE0001BF8050090476D1C4D45F7D308F1010034
:100EF000B0428046E4DB206A384420622046FFF797
:100F0000EDFEBDE8FF9F00001E0F02002DE9F0413D
:100F10008046D21D22F007020025D2E90002F52901
:100F200015A614D0011E72F1000106DA0023D0EBE1
:100F3000030063EB020211A608E0D8F800108B074B
:100F400001D50FA602E0490701D50EA601251146DD
:100F5000002408F1240704E000F092FD30323A55F5
:100F6000641C50EA0102F7D12B4632462146404626
:100F7000BDE8F04100F0D2BD000000002D000000EF
:100F80002B0000002000000030B4002100F12404F8
:100F900008E002F00705D208303542EA4372DB0868
:100FA0006554491C52EA0305F3D10468002310A2DA
:100FB000250707D5A40600D421B1C46901230DA2D9
:100FC000641EC46130BC00F0A9BD10B504462146C2
:100FD0001068FFF79DFE02462046BDE81040002342
:100FE000D2E7D21D22F00701D1E90023CCE70000AF
:100FF0000000000030000000F0B40D460188090533
:1010000002D5214C7C4402E01F4C7C440E3400216C
:1010100000F1240608E002F00F071209E75D42EA3A
:1010200003721B097754491C52EA0307F3D1027873
:101030000023120704D5702D06D009B10223113404
:101040002246F0BC00F06ABD01231034F8E770B509
:1010500004460D4621461068FFF75AFE024629460F
:101060002046BDE870400023C6E7D21D22F00703EA
:10107000D3E90023C0E70368126843F0200303604C
:101080000823C3610023B7E7800D02002DE9F05F5C
:10109000894604464FF0000ADFF874B1FB44C0F8FB
:1010A00020A02046E1688847002874D0252806D073
:1010B000D4E901219047206A401C2062F1E7002614
:1010C0005F462046E16888472028054607DB312D2A
:1010D00005D2781910F8200C08B10643F1E7B007E3
:1010E00001D526F00406C4F81CA00027C4F818A0F7
:1010F0002A2D09D028461BF0FBFC38B304EB8708E7
:10110000303DC8F8185019E059F8041B204604EB8C
:1011100087029161E1688847012F054618D1E0698F
:10112000002820DA26F020061DE0D8F8180000EB91
:10113000800005EB40003038C8F818002046E16810
:10114000884705461BF0D4FC0028EED1012F0AD0B9
:101150002E2D08D12046E16888477F1C0546022FC6
:1011600046F02006C4DBA069002803DA404246F0BE
:101170000106A061F00701D026F010066C2D0BD0FF
:10118000682D09D04C2D39D06A2D35D0742D35D02D
:101190007A2D33D016E038E0E1682F4620468847A4
:1011A000B842054609D16C2F26D04FF48060E16823
:1011B000064320468847054604E06C2F1AD04FF4BA
:1011C000807006430DB3A5F14100192802D82035DF
:1011D00046F400664A462946204626604E46FFF7FA
:1011E000B5F880B101280BD0F61D26F0070000F1FC
:1011F000080956E74020E4E78020D8E70020D6E73A
:1012000006F104094DE7284652E7206ABDE8F09F41
:10121000100D02002DE9FF4F1C4691464FF0FF359F
:1012200081B000218A468846D4E90167A169029805
:101230006D1C8847216A834688470028F6D1BBF198
:10124000FF3F0CD0002F26F4C0661ADD700615D5BE
:10125000BBF12B0F0AD0BBF12D0F0FD104E04FF0E3
:10126000FF3005B0BDE8F08F46F48066A1690298B2
:101270006D1C88477F1E8346002F02DDBBF1300FB7
:1012800003D0B9F1000F2AD025E0A1696D1C0298A6
:101290007F1E46F400768847002F834605DDBBF1AC
:1012A000780F06D0BBF1580F03D0B9F1000F10D062
:1012B00011E0B9F1000F02D0B9F1100F0BD1A16903
:1012C0006D1C02987F1E26F4007688478346102006
:1012D00000E0082081464FEAE970009017E00A20FC
:1012E000F8E74346AAFB0928DDF800C07F1E03FB90
:1012F000098046F4007605F101050AFB0C0112EBAA
:101300000B0A029841EBEB78A16988478346002FCE
:1013100006DD4946584601F013F85FEA000BE0D5B8
:10132000E16902988847B00502D46FF0010098E7A0
:10133000F00718D1700610D55146700505D5002369
:10134000D1EB030163EB080200E042462068031D75
:1013500023600068C0E9001205E02068011D2160DB
:101360000068C0E900A828467BE72DE9FF5F1D461D
:101370004FF0FF3B91464FF000085F46D5E901462C
:10138000A96901987F1C8847296A824688470028F6
:10139000F6D1BAF1FF3F0CD0002E24F4C06419DD61
:1013A000600614D5BAF12B0F09D0BAF12D0F0ED16A
:1013B00003E0584604B0BDE8F09F44F48064A96996
:1013C00001987F1C8847761E8246002E02DDBAF106
:1013D000300F03D0B9F1000F26D032E0A969761E94
:1013E00001987F1C44F400748847002E824605DD76
:1013F000BAF1780F06D0BAF1580F03D0B9F1000F47
:1014000010D01EE0B9F1000F02D0B9F1100F18D1C1
:10141000A969761E01987F1C24F4007488478246CF
:10142000102002E0082000E00A20814609E0A969B6
:1014300008FB0908761E01987F1C44F40074884755
:101440008246002E05DD4946504600F079FF00280F
:10145000EDDAE96901988847A00502D46FF0010030
:10146000A8E7E00725D1600613D5600502D5C8F1CD
:10147000000000E0404629680A1D2A60096822052C
:1014800001D5087015E0220701D5088011E0086039
:101490000FE02868011D29600068210502D580F849
:1014A000008006E0210702D5A0F8008001E0C0F826
:1014B000008038467EE72DE9FF5F4FF0000899462F
:1014C000144646469169D2E901A7DDF838B0019883
:1014D0008847054659EA0B0005D009E0A169019843
:1014E000761C88470546216A284688470028F5D19A
:1014F000681C03D05FEACA7005D015E04FF0FF30DA
:1015000004B0BDE8F09F2068011D2160D0F8008084
:101510000AE05FEACA7001D108F8015BA169761C94
:1015200001987F1E88470546002F1ADD681C18D0D9
:10153000B9F1000F0DD0E81705EBD060421120F093
:101540001F0059F822102A1A012090400142E0D1D0
:1015500007E0BBF1000FDCD12846216A884700284C
:10156000D7D0E16901988847BBF1000F07D1002E61
:1015700005DD5FEACA7002D1002188F80010A0687A
:10158000B84203DDBBF1000F03D017B16FF00100CB
:10159000B6E73046B4E700000268114413780160F2
:1015A00018467047D160054979445161044979442E
:1015B000116200211161114600F0D0BEEDFFFFFF66
:1015C00059050000426842B1016811F8013B23B19E
:1015D000521EC0E90012184670470121C160881EE2
:1015E000704742685AB1C368016843B983688B4247
:1015F00005D0491E521CC0E90012002070474FF070
:10160000FF3070470FB4002300B589B00CA90091DA
:101610000B99CB60214B7B440693214B7B44079372
:1016200004236FF00042CDE901321E4A7A446B4632
:1016300008920246002020F018FA09B05DF814FB69
:1016400070B506464FF0FF3015460C46324686B060
:101650000091CDE9010169460020049004A8FFF73C
:10166000D1FF02460498211825B108B1084600E0D0
:1016700020462860049800280DD0002A02DD00983A
:10168000884208D03246081B69460094CDE901041F
:1016900004A8FFF7B7FF06B070BD0000ABFFFFFF67
:1016A000C3FFFFFFDB0400002DE9FF4F4FF00008F0
:1016B0009A461446C146464683B0D2E901B7CDF8F2
:1016C0000080CDF8048091690498884710990546F8
:1016D0005AEA010005D009E0A1690498761C884700
:1016E0000546216A284688470028F5D1681C03D0A2
:1016F0005FEACB7005D02AE04FF0FF3007B0BDE8BD
:10170000F08F2068011D2160D0F800801FE002A842
:101710006A46E9B201F067FA411C07D0801C09D083
:101720004FF000095FEACB7007D00AE0E169049846
:1017300088473EE04FF0010904E0BDF8081028F8A2
:10174000021B7F1EA1690498761C88470546002F5E
:101750001ADD681C18D0BAF1000F0DD0E81705EBA0
:10176000D060421120F01F005AF822102A1A0120DE
:1017700090400142CBD107E010980028C7D12846FD
:10178000216A88470028C2D0E16904988847B9F1E6
:10179000000F0ED1109830B9002E04DD5FEACB7037
:1017A00001D1A8F80000A068B84202DD109818B175
:1017B00017B16FF00100A1E730469FE72DE9FF4F19
:1017C0004FF000089B461446454683B0D2E9019687
:1017D000CDF80080CDF804809169DDF848A0049828
:1017E000884707465BEA0A0005D009E0A16904982A
:1017F0006D1C88470746216A384688470028F5D17E
:10180000781C03D05FEAC97005D01BE04FF0FF30B1
:1018100007B0BDE8F08F2068011D2160D0F800807E
:1018200010E05FEAC97007D16A464046B9B201F0DC
:10183000F8F9411C31D08044A1696D1C0498761ED2
:1018400088470746002E14DD781C12D0BBF100003B
:1018500007D03B46DDE9101201F0B6F90028E0D1CF
:1018600007E0BAF1000FDCD13846216A884700282A
:10187000D7D0E16904988847BAF1000F06D1002D4E
:1018800004DD5FEAC97001D188F80000A068B042A9
:1018900003DDBAF1000F03D016B16FF00100B7E716
:1018A0002846B5E72DE9FF5F9B46144600273D46D5
:1018B0009169D2E90196DDF840A0019888478046F9
:1018C0005BEA0A0005D009E0A16901986D1C884710
:1018D0008046216A404688470028F5D1B8F1FF3F8D
:1018E00003D05FEAC97005D014E04FF0FF3004B0B8
:1018F000BDE8F09F2068011D216007680AE05FEAEB
:10190000C97001D127F8028BA1696D1C0198761E60
:1019100088478046002E15DDB8F1FF3F12D0BBF19D
:10192000000007D04346DDE90E1201F04DF9002812
:10193000E5D107E0BAF1000FE1D14046216A8847BE
:101940000028DCD0E16901988847BAF1000F05D181
:10195000002D03DD5FEAC97000D13880A068B04275
:1019600003DDBAF1000F03D016B16FF00100BEE73E
:101970002846BCE72DE9F0410646FFF747F98046C7
:10198000454613E016B1E068B0420ED120682860E9
:10199000D4E90101D8F8007088472046FEF7F9FD28
:1019A000D8F80000B842EBD100E025462C68002CA6
:1019B000E8D1BDE8F08110B501F058F9BDE810405C
:1019C00001F04FB910B501F071F9BDE8104001F018
:1019D00048B910B5044602E0641C00F026F82078EF
:1019E0000028F9D110BD4FF000020429C0F0128088
:1019F00010F0030C3FF488A8CCF1040CBCF1020FEA
:101A000018BF00F8012BA8BF20F8022BA1EB0C0196
:101A1000FFF77AB85FEAC17C24BF00F8012B00F819
:101A2000012B48BF00F8012B704708B569468DF8B7
:101A300000000320ABBE08BD00487047ECAD002499
:101A400070470000004870470CAE00240346406811
:101A50008C46002818BF88423CBF03464068F8D334
:101A600018681844884207D00CF1030020F00700E2
:101A7000001D411A521A0146081D0A60FEF789BD71
:101A800030B5B0F10A024FEA900E71F100034EEA50
:101A9000817EB0EB0E0061EB91014FEA101E4EEA21
:101AA000017E10EB0E0041EB11114FEA102E4EEAB1
:101AB000016E10EB0E0041EB11214FEA104E4EEA81
:101AC000014E10EB0E0041EB1141401841F10001B5
:101AD0004FEAD00040EA41704FEAD10110EB800597
:101AE0004FEA810444EA907444EB01046D1944EB1D
:101AF0000404521BA3414FF0000348BF0A3200D533
:101B000030BD401C41F1000130BD10B50446FFF767
:101B100071F80068005D00F0010010BD2DE9F0478C
:101B20000D4699469246044600F12408016888064D
:101B300004D5E06921F01001216000E00120A842F5
:101B400001DD471B00E00027A1697A1902EB0900BB
:101B5000081AA0612078C00602D42046FFF7A8F832
:101B6000002608E0D4E901211AF806009047206A0F
:101B7000401C761C20624E45F4DB2078C0060AD556
:101B80002046FFF795F806E0D4E901213020904780
:101B9000206A401C2062381EA7F10107F4DC07E030
:101BA000D4E9012118F805009047206A401C206202
:101BB000281EA5F10105F3DC2046FFF78FF82078F9
:101BC000000602D50220BDE8F0870120FBE7704740
:101BD0002DE9FF4F0C461E464FF0FF378BB0D2E980
:101BE0000001DDF860800A908A46C1F30A5505B904
:101BF0003D46002108464FF00000BAF1000F00F406
:101C0000400005DA00EB80004FF4400101EA50008B
:101C10004FEA9059B9F1010F00DDB9460A9850EA30
:101C20004A000ED044F61050A5F2FF3545432F145C
:101C3000B8F1000F1ED07542291E1EDDC9F1000249
:101C40001CE0B8F1010F4FF0000001D0302103E09B
:101C5000F24305E02154401CB042FBDB3046002239
:101C6000002121540B99C1F80880C1E900200FB070
:101C7000BDE8F08FBD1B6D1CDEE74A4600DA694205
:101C800006A801F095F806AB93E8070003AB83E8DC
:101C9000070050460A9901F090FB8DE80700A0F577
:101CA00000501F3800900398002D0ADD42F21F01FA
:101CB0004A460844002303A90390684601F03CFE0D
:101CC00009E0A0F500504A461F38002303A90390FD
:101CD000684601F05BFE8DE807000004000C03D0AD
:101CE0004FF0FF30410800E01046B8F1000F03D07C
:101CF0000022009215461EE0751E05D4FFF7C0FEB7
:101D0000303262556D1EF9D5B3460122084302D028
:101D100000227F1C04E02078302801D100227F1EA1
:101D2000002A099784D01DE0112D07DAFFF7A8FEDD
:101D3000303262556D1C50EA0102F5D1084302D0E1
:101D40000098C8B10EE00021681E05E0235C625CCB
:101D500063542254401E491C8142F7DBAB46A81B4A
:101D6000401E0990002004F80B000B98099AC0F857
:101D70000880C0E9002B7AE711264FF0000857E7EA
:101D80002DE9F04F88460446D21D22F0070191B09C
:101D9000D1E90001CDE90A011AF0E1FC02460B98F5
:101DA000C00F01D02D2007E02068810701D52B202E
:101DB00002E0202101EAC000032A099001D0072A8D
:101DC00005DB03464146204600F0B2FF0BE12078D8
:101DD000800601D5E06900E00620B8F1650F814674
:101DE00006D0B8F1660F18D0B8F1670F70D131E0A6
:101DF0000020B9F1110F009001DB112301E009F17E
:101E000001030AAA01A90CA8FFF7E2FEDDE90C70A4
:101E1000002609F10105834647E001204B4600906A
:101E20004FF000470AAA01A90CA8FFF7D1FEDDE98F
:101E30000DB00C995D46002610B909F101000D188E
:101E4000B9EB050003D4C0F1FF3609F10105A5EB9C
:101E500009002BE0B9F1010F01DA4FF00109002070
:101E6000B9F1110F0090484601DD112300E003464F
:101E70000AAA01A90CA8FFF7ABFEDDE90C704D46DC
:101E800000268346207800070AD4AB4500DA5D4679
:101E900001A8012D04DD411911F8011C302907D0DA
:101EA0004F4502DA17F1040F04DA012082460FE0F1
:101EB0006D1EEEE7002F02DCED1B3E4403E0781CB4
:101EC000A84200DD7D1CB81B00F1010A4FF000475D
:101ED0002078000703D4AA4501DB4FF0FF3A002128
:101EE000B7F1004F0DF143088DF8431024D00220C4
:101EF0002B23002F01DA7F422D230A21021EA0F19D
:101F0000010000DC5FB197FBF1FC97FBF1F201FBF4
:101F10001C7C17460CF1300C08F801CDEEE7A8F157
:101F2000010003702188090501D5452100E06521E4
:101F3000A0F1010800F8011C09980FA9A1EB0807FE
:101F4000FF1D00B10120411901EBEA70A16938447D
:101F5000081A401EA0612078C00602D42046FEF771
:101F6000A7FE099828B1D4E901219047206A401CB6
:101F700020622078C00622D52046FEF799FE1EE09A
:101F8000002E04DBB34502DD01A8805D00E03020B7
:101F9000D4E901219047206A401C2062761CAAF1F6
:101FA00001005FEA000A0AD1FFF74CFDC068016832
:101FB000405CD4E901219047206A401C2062281E21
:101FC000A5F10105DCDC07E0D4E9012118F8010BDB
:101FD0009047206A401C2062381EA7F10107F3DCFD
:101FE0002046FEF77BFE032011B041E62DE9F04FBD
:101FF00004460D46D21D22F0070089B0D0E90097B3
:10200000484639461AF0ABFB0246F80F01D02D23A3
:1020100007E02068810701D52B2302E0202101EA97
:10202000C0038DF820300BB1012000E00020032A0E
:10203000824601D0072A04DB2946204600F078FEBC
:102040003FE12078800601D40D2500E0E569C7F363
:102050000A560D2D49DA00214FEA175B08464FF06A
:102060000000002F00F4400007DA00EB80004FF47E
:10207000400100EBD07001EA60008115012901DD0B
:102080004FF0FF3100224FEA850CBCF1180F06D348
:102090001346ACF118004FF08052C24003E04FF4F9
:1020A000801323FA0CF30CF10C0CBCF1200F04D3B9
:1020B000ACF1200C09FA0CF001E007FA0CF0002951
:1020C0004FF0004801DD18B90FE00ED140450CD3A8
:1020D00019EB02095F4121B9404502D19F4329EA2A
:1020E0000209BBEB175F00D0761C2088000502D5E3
:1020F0007B48784402E07A487844193808AA3023AB
:1021000002F80A30037C0AF10101002E0AF1020AEA
:1021100053546A4602DC4FF0300101E04FF03101C8
:102120004FF001088DF8001002D0A6F2FF3603E050
:1021300059EA470100D06B4E002D02DC21780907D7
:1021400004D54FF002082E218DF80110C44600215D
:102150000BE0C7F303433F01C35C491C6D1E02F84B
:102160000830052908F1010801DA002DF1DC002111
:102170000CE000EB1973491C1B786D1E082902F84E
:1021800008304FEA091908F1010801DA002DF0DCE6
:1021900021688B0602D516E0A8F10108E04505DDAF
:1021A00002EB080313F8013C302BF5D0B8F1000F17
:1021B00009DD02EB080313F8013C2E2B03D10907BC
:1021C00001D4A8F10108002D05DD3E2102F8081018
:1021D0006D1E08F10108407C002E02F8080008F18D
:1021E000010804DA2D20764202F8080002E02B20D4
:1021F00002F808000A214FF47A70864208F10108BB
:102200000BDB96FBF0F3303302F8083096FBF0F36B
:1022100008F1010800FB136601E0642E0CDB64206A
:1022200096FBF0F3303302F8083096FBF0F308F138
:10223000010800FB136601E00A2E06DB96FBF1F0B5
:10224000303002F8080008F1010896FBF1F001FBBC
:102250001060303002F80800A16908F1010808EBAD
:10226000050202EB0A00081AA0612078C00602D419
:102270002046FEF71DFD216A08AE01EB0A00206230
:1022800004E0D4E9012116F8010B9047BAF1010AE4
:10229000F7D22078C00602D52046FEF709FD6E462B
:1022A00009E016F8010B3E280FD0D4E90121904730
:1022B000206A401C2062B8F10108F2D22046FEF7E5
:1022C0000DFD09B00320BDE8F08F206A284420628C
:1022D00003E0D4E90121302090476D1EEBD3F8E7ED
:1022E000DEFC010002FCFFFF10B5436913B1AFF340
:1022F000008001E0FEF715FD012010BD127800F10D
:1023000024010A7000224A700122EDE711684FF0A3
:10231000FF32E9E710B5436913B1AFF3008001E084
:10232000FEF796FD012010BD128800F12401828481
:102330000022C2840122EDE711684FF0FF32E9E785
:102340003A2800D2303820F02002412A01D3A2F1ED
:102350003700884201D34FF0FF3070472DE9F34F2B
:102360004FF0000A0C4656468DB001200C9001F14A
:102370000C000B9062690B9801219047051E2DD02F
:10238000252D2CD0216A8847C0B162690B980121A4
:102390009047216A88470028F7D16269411E0B984F
:1023A000904700E0761CA1690D988847216A88470C
:1023B0000028F7D1E1690D988847DBE7A1690D98FE
:1023C0008847A842074601D1761CD3E7E1690D98FA
:1023D00088477F1C02D1BAF1000F6FD06BE16269B0
:1023E0000B9800273D46394690472A2804D1626958
:1023F0000B98012190470125DFF8D08262690B9884
:1024000001219047A0F130010A290AD24745E5DCB5
:1024100007EB870100EB4107303FDFD445F01005A3
:10242000ECE7E90601D46FF000476C280AD04C288D
:1024300014D0682815D06A280DD074281CD07A28AA
:102440001AD01DE062690B98012190476C2802D0D8
:1024500045F0040514E045F002050DE045F02005C7
:102460000AE062690B9801219047682802D045F084
:10247000080505E045F4006562690B980121904765
:10248000C4E9015765283DD019DC58287AD00CDC06
:10249000452837D004DC252826D041289ED131E0BC
:1024A00046282FD0472899D12CE05B2877D0612887
:1024B00028D063287CD0642823D15AE0F6E06F2826
:1024C00048D008DC66281DD067281BD0692821D099
:1024D0006E2816D127E0702845D0732868D075285B
:1024E00047D078280DD14DE0A1690D98884725285F
:1024F00005463FF469AFE1690D9888476D1C3FF4CC
:102500006AAFD8E00D9923466A466FF001001FF0CC
:10251000ACFAC5E045F0400023464FF00002606091
:10252000A80736D43EE0E8077FF447AF2068011DD6
:1025300021600068290501D506701BE7290701D530
:10254000068017E7A90703D5F117C0E9006111E775
:1025500006600FE745F0400023464FF00802606038
:10256000A80716D41EE040F60E0125EA01006060BF
:1025700016E045F0400023464FF00A026060A807CD
:1025800007D40FE045F040006060A80708D5234657
:1025900010220D996FF00100FEF73CFE80E007E08D
:1025A000102223460D996FF00100FEF7DEFE77E062
:1025B0004FF0000963284F46C8464B46CB4602D031
:1025C0005B2806D038E0E80601D40120A06001278E
:1025D00032E06269D4F80CB00B98012190475E2874
:1025E00007D14FF0010949466269D4F80CB00B9845
:1025F0009047216939B900210A4603AB43F82120ED
:10260000491C0829FADBD8B3216949B308F101084C
:1026100062690B98012190475D28F4D1B9F1000F50
:1026200009D0002003A951F82020D24341F82020EE
:10263000401C0828F7DB03AB2069002820794FEA0B
:1026400040701ED05B462246CDF80080CDE9019750
:102650000D9900286FF0010020DAFFF723F91FE041
:10266000C11703AA00EBD1614B1121F01F0102EB4E
:102670008302411A13680120884003431360C7E7AF
:1026800019E00D99224600286FF00100009702DA48
:10269000FFF70AF804E0FEF70EFF01E0FFF78EF8FF
:1026A00000280ADA401C06D10C9820B14FF0FF3008
:1026B0000FB0BDE8F08F5046FAE7E90701D10AF103
:1026C000010A064400200C9054E60000CCCCCC0C4F
:1026D0002DE9FF4F06468BB00878FF2806D0491C2D
:1026E0002D2805D000244FF0000908E000200CE060
:1026F0000124F8E709EB8903491C00EB430908783A
:10270000FF28F7D114B1C9F10000814610780025E7
:102710002C46AA4629462D2801D02B2804D1521C2C
:102720002D2813D0002082468B461078FF280FD02A
:102730004FF0000C0A21521CA5FB017804FB01811B
:1027400005FB0C11C5194BEB0104EEE70120EAE78C
:10275000002108464FF00000BAF1000F02D000EB54
:1027600080004008C0F38157012F01DD4FF0FF3793
:102770000E9955EA040009EB01080BD04FF002094D
:1027800018F5FA7F16DA4FEACA70002F706008DD7C
:10279000012007E04FEACA70C6E900B00FB0BDE8FB
:1027A000F08F0020306000F0BFFAC0F800901821D0
:1027B000084616E0B8F5FA7F18DD002F02DAF74870
:1027C000784401E0F6487844D0E90010C6E90010EA
:1027D00040EACA70706000F0A7FAC0F800901421B7
:1027E00008460FB0BDE8F04F1FF0D8B800210846EA
:1027F0004FF00000B8F10001099002DAC7F10002C1
:1028000000E03A4601DAC8F1000106A800F0D0FA6B
:1028100006AB93E8070003AB83E8070044F23E00F1
:102820005BEA04010090584604D144F21E012C4694
:102830005D460091210C0904014306D1009924044E
:1028400044EA15442D041039009104F07F410143FE
:1028500006D10099240244EA15642D02083900913A
:1028600004F07041014306D10099240144EA157433
:102870002D01091F009104F04041014306D1009948
:10288000A40044EA9574AD00891E009104F0004153
:10289000084304D100986D196441401E00904FF028
:1028A00001033A466846B8F1000FCDE9014503A996
:1028B00002DD01F080F801E001F053F8BAF1000FF9
:1028C00004460D4601D084F00044002108464FF034
:1028D0000000099940F2FF77484010F00C0F07D133
:1028E00024F00040284303D0C4F30A50B84212D168
:1028F00000F01AFAC0F80090C4F30A50B8420AD1A6
:10290000A8487844D0E90010C6E9001004F000415E
:102910000843706042E7C6E900543FE72DE9FF4FE6
:102920001F464FF0000A4FF0FF38454691B0D7E9F7
:102930000146CDF83CA0FFF785F8C0680168405C0F
:102940001090B96912986D1C8847396A814688478A
:102950000028F6D1B9F1FF3F0AD0002E24F4D0644C
:1029600011DDB9F12B0F08D0B9F12D0F0BD102E019
:10297000404615B013E744F48064B96912986D1CA1
:102980008847761E8146600504A901D52D2000E008
:102990002B20002E01F1010B0DF130088DF81000F5
:1029A0003FDDB9F1690F08D0B9F1490F05D0B9F190
:1029B0006E0F02D0B9F14E0F1CD13B4601A8009515
:1029C00080E85002DDE912126FF002001FF051F8AA
:1029D000C11CCED10EE0B96912986D1C88478146A2
:1029E0001398761E44F4007405600F98401C002E66
:1029F0000F9016DDB9F1300FEDD0B9F1780F02D09C
:102A0000B9F1580F0DD10F9801280AD13B46CDE9F5
:102A10000054DDE91212001F02961FF028F8C11CB5
:102A2000A7D1109989453ED144F0800406E013995E
:102A3000681CAAF1010A44F400740860B9696D1CAD
:102A40001298761E884730288146F0D02BE01099E6
:102A5000894505D1200603D4761E44F0800418E091
:102A600048461AF045F808B3761E0DF123018B4550
:102A700044F4007408D2A9F130000BF8010B2006D1
:102A800007D5AAF1010003E0200602D40AF10100F3
:102A90008246A00502D51399681C0860B96912988E
:102AA0006D1C88478146002ED1DC53E0002E51DD9D
:102AB000B9F1650F02D0B9F1450F4BD1A00549D549
:102AC000B9696D1C1298761E24F440748847002E54
:102AD00081460CDD2B2804D0B9F12D0F07D144F429
:102AE0008074B96912986D1C8847761E8146E0058E
:102AF00001D52D2100E02B2108F8011BCDF8008025
:102B000021E0761E0DF13901884544F400740CD2A1
:102B1000A9F1300010F0FF0088F8000002D1009900
:102B2000884509D908F1010806E0E00501D51E48ED
:102B300001E042F20F708246B96912986D1C884715
:102B4000814613980560002E04DD484619F0D0FF39
:102B50000028D6D1F96912988847FF2053468BF890
:102B6000000088F8000000200A900B9004AA0CA92D
:102B70000AA8FFF7ADFDA00502D46FF00100F8E64A
:102B800014F0240F12D0E0071CD13868DDE90A12D6
:102B9000031D3B600068C0E9001213E0A492090025
:102BA000969209005A910900F1D8FFFF0AA96846D8
:102BB00019F0B2FEE00705D13868009A011D3960AE
:102BC000006802602846D4E610B508E030F8024BF1
:102BD0009C4204D10AB1002010BD012010BD491E45
:102BE000F4D2104610BD70B516460C460546FEF7E9
:102BF00001F8036893F80101012804D0185D68B159
:102C000001202C8070BDD3F803013246214603F227
:102C1000031303442846BDE8704018474FF0FF30C7
:102C200070BD70B516460C460546FDF7E3FF036818
:102C300093F80101012806D0FF2C0FD8185D68B168
:102C400001202C7070BDD3F807013246214603F2F3
:102C5000071303442846BDE8704018474FF0FF3083
:102C600070BD002801D0FDF7BFBF704710B500212F
:102C700002A000F018F9012010BD0000534947419F
:102C80004252543A2041626E6F726D616C207465DD
:102C9000726D696E6174696F6E00000010B500F0AE
:102CA0001BF9BDE81040FFF7DCBF000010B50021A4
:102CB00002A000F0F8F8012010BD00005349475071
:102CC00056464E3A20507572652076697274756169
:102CD0006C20666E2063616C6C6564007546FEF75F
:102CE000ABFEAE4605006946534620F00700854618
:102CF00018B020B5FDF70CFCBDE820404FF00006F1
:102D00004FF000074FF000084FF0000B21F00701D3
:102D1000AC46ACE8C009ACE8C009ACE8C009ACE816
:102D2000C0098D467047000000487047ECAD002494
:102D30002DE9F0411F46044603260168072A01F4E5
:102D4000006004DB08B116A505E016A503E008B194
:102D500015A500E015A521F010002060A069C01E97
:102D6000A0610FB1401EA0612046FDF7A1FF4FB149
:102D7000D4E9012138469047206A401C2062C01CDB
:102D8000206206E0206AFAE7D4E9012115F8010B78
:102D90009047761EF8D22046FDF7A0FFBDE8F081EF
:102DA0004E414E006E616E00494E4600696E6600EF
:102DB0002DE9F047814616468AB0354878440DC85B
:102DC0008DE80D0032487844801C03AC0DC884E8BF
:102DD0000D0041F69B300844372190FBF1F290FB47
:102DE000F1F5A5F1800501FB12041B3C02D56442FC
:102DF000012000E00020DFF898A080460027FA4478
:102E0000AAF1BE0A0EE0E0070AD03246684607EB98
:102E1000470101230AEB810100F0B8FD8DE80700AE
:102E200064107F1C002CEED1194F7F44AE3F19E097
:102E3000E80715D007EB04100DF1180A90E80E0012
:102E40008AE80E00C068F04201D198190890324615
:102E5000012306A903A800F099FD03AB83E807004E
:102E60006D10641C002DE3D14FF00103324669461A
:102E7000B8F1000F03A802D000F05EFD01E000F001
:102E800085FDC9E90001C9F808200AB0BDE8F0874E
:102E9000A4F0010010B50446AFF300802046BDE861
:102EA0001040FDF7C1BA70B505460C460A2000E097
:102EB0006D1CFEF7BAFD35B128780028F8D102E084
:102EC000641CFEF7B2FD14B120780028F8D1BDE8EB
:102ED00070400A20FEF7A9BD10B5012805D00021D9
:102EE00003A0FFF7E0FF012010BD09A1F8E70000F3
:102EF00053494752544D454D3A204F7574206F66E3
:102F00002068656170206D656D6F7279000000004A
:102F10003A2048656170206D656D6F727920636F2E
:102F2000727275707465640010B5FFF7FDFE00687D
:102F300010BD10B50446FFF7F7FE046010BD000099
:102F40002DE9FF4F1F464FF03C0987B04FF000427C
:102F5000DDE9141001F10108DDF858A002EA405043
:102F60000390002005908346054604460490B96905
:102F7000461E08988847AAF1010A0290BAF1000F8C
:102F80003BDD02982E2815D01021FFF7D9F9002833
:102F90002EDB4FF0010B0599014317D0B9F1000F5B
:102FA0000BDB4A46C11700F0F5F905430C43A9F1C4
:102FB000040905E0012004900BE008B145F001058B
:102FC00001200590049820B9361D02E0049800B154
:102FD000361FB969089808F101088847BBF1000F4E
:102FE000AAF1010A0290C9D00999C1F80080C5E789
:102FF0000298702808D0502806D0F96908988847A8
:10300000BBF1000F14D04FE0002002900120BBF173
:10301000000F049009D0B969089808F101088847A1
:10302000AAF10109B9F1000F07DCF969089888478E
:103030006FF001000BB0BDE8F08F2B2804D02D28D5
:103040000CD14FF0FF300490B969089808F10108DD
:103050008847A9F10109B9F1000FE6DD411CE4D070
:103060000A21FFF76DF90028DFDB029908F101085A
:1030700001EB810100EB41000290B9690898884793
:103080000A21FFF75DF9099AA9F10109B9F1000FC9
:10309000C2F8008001DD0028E7DAF969089888475E
:1030A0000499029800FB016655EA040004D004F07C
:1030B0004041090002D006E0039898E0A40044EAE9
:1030C0009574AD00B61E04F00041080002D16D19E0
:1030D0006441761E159810F0240F03D04FF00B09B1
:1030E0005C4803E04FF028096FF07D0082465645AA
:1030F00007DAAAEB06018944B9F1410F01DD4FF06F
:10310000410901200021A9F1010200F043F9024622
:1031100028400B462140084301D0012100E0002156
:10312000501E029143F1FF3128402140084301D055
:10313000012000E000200299834651EA0B014FD0A4
:10314000002108464FF00000039900F4400039B117
:1031500000EB80004FF4400100EBD07001EA60000A
:103160008015012802DD4FF0FF3000E013D0401C35
:1031700036D0029860B3BBF1000F0CD14A46012053
:10318000002100F007F928402140084301D0012028
:1031900000E00020E0B101204A46002100F0FAF8EA
:1031A000034640190A4661412D1A8C4111D3B9F1E9
:1031B000400F09DD159810F0240F02D0AAF1340653
:1031C00003E0AAF1170600E0761C00254FF000444A
:1031D00006E05B1E42F1FF3220EA030521EA020409
:1031E000CAF10100B04206DA1B4903980843019076
:1031F000002000900EE0039AC4F3D321E80A0A43AA
:10320000164940EA44500A433146CDE90002684677
:1032100019F012FC159810F0240F0BD01598C00768
:1032200015D13868DDE90012031D3B600068C0E974
:1032300000120CE002A8694619F06EFB1598C00751
:1032400005D13868029A011D396000680260404665
:10325000F0E6000002FCFFFF0000F07F0000F03FFE
:103260002DE9FF4F92461D4685B04FF00041DDE944
:10327000124BDDE914727F1E01EA4B50414940F0C8
:10328000FF4940EA0108002122F02000492804916A
:1032900002D04E2828D04CE03BA0012607C88DE87C
:1032A0000700A9690698641C88477F1E014606D45A
:1032B0001DF8060018B121F0200181420BD0E96908
:1032C00006988847032E34D0082E32D06FF00100C4
:1032D00009B0BDE8F08F761C032E01D0082EE0D196
:1032E000601CCAF80000DCE7A9690698641C8847DE
:1032F0007F1E2AD420F02000412826D1A9690698F3
:10330000641C88477F1E20D420F020004E281CD14A
:10331000A9690698641C88477F1E48F4002849F470
:103320008009CAF8004001D4282806D0E969069827
:1033300088475FEACB7012D022E0A9690698641C26
:1033400088477F1E01D4002803DAE9690698884778
:10335000BCE72928F1D1641CCAF80040E9E71BF05A
:10336000240F07D028680499031D2B600068C0E96A
:10337000001805E02868021D2A600068C0F8009067
:103380002046A5E70000F07F494E46494E49545972
:1033900000000000B2F120030AD5C2F1200301FAB7
:1033A00002F120FA03F300FA02F041EA0301704748
:1033B00000FA03F14FF0000070475FEA400C08BFCD
:1033C00091F0000F4FEA8C234FEAC12243EA51519A
:1033D0004FEA1C5018BF00F5F0404FEA300018BF0C
:1033E00041F000415FEA6C5C00F02980BCF1FF3FD6
:1033F00008BF40F080407047130C06BF12044FF026
:10340000100C4FF0000C130E04BF12020CF1080C4C
:10341000130F04BF12010CF1040C930F04BF9200B0
:103420000CF1020CD30F04BF52000CF1010C114639
:103430004FF00002A0F11F00A0EB0C00704711F04C
:10344000004F08BF704731F000413FF4D5AF0B0C7F
:1034500006BF09044FF0100C4FF0000C0B0E04BF18
:1034600009020CF1080C0B0F04BF09010CF1040C4C
:103470008B0F04BF89000CF1020CCB0F04BF490075
:103480000CF1010CCCF12003A0EB0C0022FA03F3A9
:1034900002FA0CF241EA030100F10100704720F04A
:1034A0007F4C80EA030023F07F47ACEB070303F572
:1034B0007C5300F0004003F1FF032DE980494FEAFF
:1034C000154B09B44FEA144325EA0B4E24EA03488E
:1034D0000FF2042606EB132749083E785FEA320212
:1034E00003FB0667C7F5000707FB06F64FEA5437EC
:1034F0004FEAD64606F1020607FB066CCCF1005CEB
:103500004FEA1C472CEA074C07FB06F40CFB06F5B8
:1035100004EB15464FEA961634BF00204FF00040EA
:103520004FEAD13706FB07FC4FEA1C4C0CFB0BF7AC
:10353000D21B03FB0CF761EB07010CFB0EF7B0EBA2
:10354000074072EB17420CFB08F734BFA2EB0742AF
:10355000B2EB074261EB17414FEA0C444FEA910787
:1035600006FB07FC4FEA1C4C0CFB0BF7B0EBC7400B
:1035700072EB573203FB0CF734BFA2EBC742B2EB3E
:10358000C74261EB57310CFB0EF7B0EBC70072EB93
:1035900057720CFB08F734BFA2EBC702B2EBC702AD
:1035A00061EB5771039F4FEA816141EA921104EB8D
:1035B000CC044FEAD1374FEA826206FB07FC42EAAD
:1035C00090124FEA80604FEA1C4C0CFB0BF7D21BA9
:1035D00003FB0CF761EB07010CFB0EF7B0EB0740A8
:1035E00072EB17420CFB08F734BFA2EB0742B2EBB9
:1035F000074261EB17414FEA8C554FEA910704EB04
:103600009C2406FB07FC4FEA1C4C0CFB0BF7B0EBB1
:10361000C74072EB573203FB0CF734BFA2EBC74233
:10362000B2EBC74261EB57310CFB0EF7B0EBC700B2
:1036300072EB57720CFB08F734BFA2EBC702B2EB78
:10364000C70261EB577115EB4C254FEA816141EAE6
:1036500092114FEA82624FEAD13742EA901206FB9A
:1036600007FC44F100044FEA80604FEA1C4C0CFB5D
:103670000BF7D21B03FB0CF761EB07010CFB0EF7FA
:10368000B0EB074072EB17420CFB08F734BFA2EB1C
:103690000742B2EB074261EB174115EB1C154FEAED
:1036A000813141EA92414FEA823242EA90424FEA46
:1036B00080304FEA0C7644F1000448EA03434EEAB6
:1036C0000B484FF0000EB2EB080C71EB030724BF60
:1036D000624639464EEB0E0E4FF0000B0018524179
:1036E00049414BEB0B0BB2EB080C71EB03077BF181
:1036F000000B24BF624639464EEB0E0E4FF0000B16
:103700000018524149414BEB0B0BB2EB080C71EB2B
:1037100003077BF1000B24BF624639464EEB0E0EC9
:1037200051EA020718BF46F0010616EB0E7655F176
:10373000000254F1000103D5BDE88901BDE800880D
:10374000BDE88901BDE80048B619524141EB0101CD
:10375000A3F10103704780807F7E7D7C7B7A79783E
:10376000777676757473727171706F6E6E6D6C6C46
:103770006B6A6A69686867666665646463636261E8
:103780006160605F5F5E5E5D5D5C5C5B5B5A5A5969
:1037900059585857575656555555545453535252D5
:1037A0005251515050504F4F4F4E4E4D4D4D4C4C2D
:1037B0004C4B4B4B4A4A4A49494948484847474776
:1037C00047464646454545444444444343434342B3
:1037D000424242414141000046EA0646A3F5705389
:1037E0004FEA164646EA42564FEAD22242EA415290
:1037F00010B54FEAD121A3F1010300F02FF820F01A
:10380000004000F1020C00F0004701EB00501146AF
:10381000BCF5006F40EA070000D210BDBAF1000FFE
:103820000AD01CB503B44FF004004FF004014FF070
:1038300000000FBCBDE810404FF00001BBF1010FCC
:10384000B9BF04484FF0FF310348002140EA0700A8
:1038500010BD00BFFFFFEF7F0000F07F002B9C46F4
:1038600030D477002BD01CB54FEA370703B44FF0A4
:1038700010004FF01001BAF1000F06D0BCF1000F9C
:10388000DCBF40F0080040F008014FF000000FBC22
:10389000BDE810400BF1010BBBF1010F08BF5FEA5F
:1038A000170722BF12F1010211F101014FF000418F
:1038B00043F1000300F0004043EA00007047F9D3F1
:1038C0005708D0E746EA064613F1400F4FEA16467E
:1038D0001FDD13F1200FDFBF16430A4600212033FE
:1038E0005B42BED0C3F1200746EA064602FA07F75C
:1038F0004FEA164646EA0706C3F1200722FA03F20A
:1039000001FA07F721FA03F14FF0000342EA070238
:10391000A7E746EA020646EA06464FEA164646EAA0
:103920000106BCBF46EA0646360C4FF000034FF0D6
:1039300000024FF0000194E72DE9804C9A4693462F
:1039400070B491E8380007C831EA400C48BF34EA47
:10395000430C03D5FFF7A3FDFFF780FFF0BCBDE8E4
:10396000008C2DE9804C9A46934670B491E838005B
:1039700007C831EA400C48BF34EA430C03D5FFF7CF
:103980008EFDFFF729FFF0BCBDE8008C2DE9804CCF
:103990009A46934670B491E8380007C810F0804FFB
:1039A00008BF13F0804F03D100F01AF8FFF756FF5D
:1039B000F0BCBDE8008C2DE9804C9A46934670B46B
:1039C00091E8380007C810F0804F08BF13F0804F0F
:1039D00003D100F005F8FFF7FFFEF0BCBDE8008C56
:1039E00020F07F4780EA030023F07F4C07EB0C03B5
:1039F000A3F57C5300F00040A3F1FE0392F0000F0A
:103A000000F0B38095F0000F00F077802DE90149B8
:103A10004FEA11404FEA144621EA004800FB06FC39
:103A200024EA064708FB06F607FB08F800FB07F741
:103A300018EB06484CEB164C4FEA124B18EB0748B4
:103A40004FEA15464CEB174022EA0B4E0BFB06FCE7
:103A500025EA06470EFB06F607FB0EFE0BFB07F7F3
:103A60001EEB064E4CEB164C4FF000061EEB074EBD
:103A70004CEB174B18EB0B0840F1000018EB0E0B4A
:103A800058EB000840F100008F1A4FF000013CBFD6
:103A9000C943661B14BFB5EB040C00213CBFC943EE
:103AA000F61B4FEA17444EEA8E0E27EA04454FEA0A
:103AB0001C4704FB07622CEA074C05FB07F70CFBCD
:103AC00005F604FB0CFC16EB074642EB174216EB1F
:103AD0000C4642EB1C421BEB060658EB020241412E
:103AE00046EA9E0601D5BDE80189B619524141EB6F
:103AF0000101A3F10103BDE801894FEA14454FEA32
:103B0000114724EA054621EA074C05FB07F406FBAA
:103B100007F70CFB06F105FB0CFC11EB074144EB2E
:103B200017444FEA124711EB0C4144EB1C4422EAC4
:103B3000074C05FB07F206FB07F70CFB06F605FB37
:103B40000CFC16EB074642EB174216EB0C4642EB19
:103B50001C456A1854F1000148BF7047B61952411C
:103B600041EB0101A3F10103704795F0000F37D03D
:103B70004FEA11424FEA144721EA024624EA074C71
:103B800002FB07F106FB07F70CFB06F402FB0CFC3B
:103B900014EB074441EB17414FEA154714EB0C4473
:103BA00041EB1C4125EA074C02FB07F506FB07F732
:103BB0000CFB06F602FB0CFC16EB074645EB174523
:103BC00016EB0C4645EB1C42121951F1000148BF9F
:103BD0007047B619524141EB0101A3F1010370474F
:103BE0004FEA14454FEA114724EA054621EA074CFB
:103BF00005FB07F106FB07F70CFB06F24FF000068A
:103C000005FB0CFC12EB074241EB174112EB0C4297
:103C100051EB1C4148BF7047921841EB0101A3F1E1
:103C20000103704770B504464E492068884203D0AE
:103C30004D492068884208D14C48006800F4403063
:103C400008B1012009E0002007E04948006800F4BD
:103C5000403008B1012000E00020B8B108F0CCFAF3
:103C600005466068B0F5803F06D0B0F5003F04D04F
:103C7000B0F5403F08D105E000BF6068000CB5FB1F
:103C8000F0F502E0AD0800E000BF2AE04FF40020AC
:103C900006F0B4FB05466068C0F31101F9B9801461
:103CA0000C281CD2DFE800F01B060708090A0B11DC
:103CB0001315171900BF00BF00BF00BF00BF606829
:103CC000800C4000B5FBF0F50AE02D0908E06D0915
:103CD00006E0AD0904E0ED0902E02D0A00E000BFB6
:103CE00000BF04F0D7FE41F20301884210D82148FA
:103CF000854206D92068806840F480702168886019
:103D00002FE02068806820F480702168886028E0B7
:103D10006D081948854206D82068806820F44070F4
:103D2000216888601DE01548854208D820688068B1
:103D300020F4407040F480702168886011E01048E1
:103D4000854208D82068806820F4407040F40070F4
:103D50002168886005E02068806840F44070216830
:103D6000886070BD0020024000210240082302400C
:103D700008630258002D3101105E5F0020BCBE00B8
:103D800040787D0170B50546AC6B606D00F0500069
:103D900098BB606D40F4007060652068006800F0BA
:103DA0000800A8B120680BF0BDFC10B32068C06803
:103DB00000F40050E8B9606D20F480706065606DBB
:103DC00000F48050A8B9606D40F00100606510E01B
:103DD0002068C06800F0030058B9606D20F480705E
:103DE0006065606D00F4805018B9606D40F00100AE
:103DF0006065204601F014FB0CE0FFE7606D00F009
:103E0000100018B1204601F00DFB03E0E06CC16C1E
:103E10002846884770BD70B50546AC6B606D40F0B4
:103E200040006065A06D40F00400A065204601F0F0
:103E3000F9FA70BD70B50446A56B284601F0F1FA99
:103E400070BD000070B5044620680BF052FC0028DD
:103E500051D1206880682949084048B1606D40F020
:103E600010006065A06D40F00100A065012070BDEC
:103E700020680BF011FC04F013FE0546204A21686F
:103E8000914203D01F4A2168914201D11E4900E0AE
:103E90001E4908460BF008FC06461A49206888426D
:103EA00001D1174800E020682168884200D00EBB8D
:103EB0001AE020680BF01DFC10B920680BF0ECFB39
:103EC00004F0EEFD401B02280ED92068006800F0C7
:103ED000010048B9606D40F010006065A06D40F0D1
:103EE0000100A0650120C2E72068006800F0010021
:103EF0000028DED000BF0020B9E700003F000080AE
:103F000000200240002102400023024000630258CA
:103F10002DE9F04107460D4616464FF00108384698
:103F200000F01DF8A0B900240DE0681EA04204D1E5
:103F300000201BF089FB305503E001201BF084FBBF
:103F40003055601CC4B2AC42EFDB4FF0000801E01A
:103F50004FF001081BF0C8FB4046BDE8F08170B58A
:103F600005461BF09FFB28461BF00EFC012800D0E5
:103F700001240024204670BD2DE9F04180460E4604
:103F800017461BF08FFB4046FFF7E9FF60B900249E
:103F900004E0385D1BF0F8FB601CC4B2B442F8DBEF
:103FA0001BF0A2FB002502E01BF09EFB012528462A
:103FB000BDE8F08110B504462146024809F068F9D1
:103FC00010BD0000B817002410B5044809F073F9BB
:103FD000042801D0012010BD0020FCE7B817002400
:103FE00010B5002400F014F8012801D0022010BD03
:103FF000064809F0E1F9044634B94FF4804103481A
:1040000008F076FF00B101242046F0E7B81700243D
:1040100008B5012000909DF8000008BD2DE9F04191
:1040200004460D461646002733462A4621460448D4
:1040300009F076FB00B101273846BDE8F0810000A9
:10404000B81700242DE9F04104460D461646002716
:1040500033462A462146044809F0D8FB00B101271F
:104060003846BDE8F0810000B817002400BFFEE725
:104070001D4A30B5136823F0010313601B4A13680F
:10408000C3F30B140123A4F54065243D06D0126848
:10409000C2F30B12A2F54064273C10D1144A1268F7
:1040A0006AB9144A14684FF08A45B5EB045F11D021
:1040B0001268C2F30B02A2F58064833C0AD00E4A58
:1040C00093609368002BFCD110601068884209D07F
:1040D000002030BD094A13601368002BFCD1074A49
:1040E000083AF1E7012030BD002000E000ED00E0DB
:1040F000002004E00010005C00300240084C025830
:1041000010B5024802F0A8FE10BD000038030024DC
:1041100010B5024802F0A0FE10BD0000B00300245C
:1041200010B5024802F098FE10BD0000B80400244B
:1041300010B5024802F090FE10BD000030050024CA
:1041400010B5024802F088FE10BD00000C160024D5
:1041500010B5024802F0A2F810BD0000A816002415
:104160000146374A0868904249D0354A18320868F3
:10417000904244D0324A3032086890423FD0304AB0
:104180004832086890423AD02D4A6032086890421E
:1041900035D02B4A78320868904230D0284A903285
:1041A000086890422BD0264AA8320868904226D050
:1041B000244A0868904222D0224A18320868904265
:1041C0001DD0204A30320868904218D01D4A48322B
:1041D0000868904213D01B4A6032086890420ED0A3
:1041E000184A78320868904209D0164A9032086816
:1041F000904204D0134AA8320868904201D10120AD
:1042000000E00020B0B10A78103A1823B2FBF3F0B6
:1042100000F007020C4B9A5CCA65032805D90A68AE
:104220006FF30902121D8A6503E00A686FF3090241
:104230008A6503E0086820F0FF008865886D704794
:104240001000024010040240481C029010B50268A1
:104250002B4C0368A34222D0294C14340368A34298
:104260001DD0274C28340368A34218D0244C3C347A
:104270000368A34213D0224C50340368A3420ED0EB
:104280001F4C64340368A34209D01D4C7834036882
:10429000A34204D01A4C8C340368A34201D10123F9
:1042A00000E000238BB10378083B1424B3FBF4F146
:1042B000144B03EB81030366124B8033436601F01A
:1042C0001F040123A340836618E00378103B1824E1
:1042D000B3FBF4F10C4B9A4204D80B4BA83B9A4227
:1042E00000D30831094B03EB81030366074B80338E
:1042F000436601F01F040123A340836610BD000044
:104300000854025800580258B804024000080240FD
:104310000179A9B3082940D8204B02689A4222D0DB
:104320001E4B143302689A421DD01C4B283302687E
:104330009A4218D0194B3C3302689A4213D0174B5B
:10434000503302689A420ED0144B643302689A428A
:1043500009D0124B783302689A4204D00F4B8C3349
:1043600002689A4201D1012200E000224AB14A1EAD
:104370000B4B03EB8202C266094A4032026708E037
:104380000BE04A1E074B03EB8202C266054A40322D
:1043900002674A1E0123934043677047085402583E
:1043A0000059025800090240014600208A69D2B92A
:1043B0008A6A32B1012A0DD0022A03D0032A10D111
:1043C0000EE000BFCA6A02F08072B2F1807F00D1B5
:1043D000012007E0CA6AB2F1C07F00D1012001E0EC
:1043E00000E000BF36E08A69B2F5005F1BD18A6A3F
:1043F00032B1012A07D0022A03D0032A11D10AE0E0
:1044000000BF01200EE0CA6A02F08072B2F1807F24
:1044100000D1012006E0CA6AB2F1C07F00D10120BC
:1044200000E000BF16E08A6A32B1012A05D0022AF4
:1044300004D0032A0CD103E000BF00BF012008E034
:10444000CA6A02F08072B2F1807F00D1012000E0E0
:1044500000BF00BF70470000F0B5856D846D984FB8
:104460000668BE4270D0964F18370668BE426BD0C1
:10447000934F30370668BE4266D0914F4837066882
:10448000BE4261D08E4F60370668BE425CD08C4F12
:1044900078370668BE4257D0894F90370668BE42CB
:1044A00052D0874FA8370668BE424DD0854F066868
:1044B000BE4249D0834F18370668BE4244D0814F70
:1044C00030370668BE423FD07E4F48370668BE424E
:1044D0003AD07C4F60370668BE4235D0794F783786
:1044E0000668BE4230D0774F90370668BE422BD068
:1044F000744FA8370668BE4226D0734F0668BE4286
:1045000022D0714F14370668BE421DD06E4F283737
:104510000668BE4218D06C4F3C370668BE4213D0C6
:10452000694F50370668BE420ED0674F6437066841
:10453000BE4209D0644F78370668BE4204D0624F4D
:104540008C370668BE4201D1012600E000263EB14C
:10455000D0E919767E60C66E16B1D0E91C767E6011
:10456000574F0668BE4249D0554F18370668BE42BD
:1045700044D0534F30370668BE423FD0504F483783
:104580000668BE423AD04E4F60370668BE4235D00C
:104590004B4F78370668BE4230D0494F9037066897
:1045A000BE422BD0464FA8370668BE4226D0454FA4
:1045B0000668BE4222D0434F18370668BE421DD05F
:1045C000404F30370668BE4218D03E4F4837066825
:1045D000BE4213D03B4F60370668BE420ED0394F03
:1045E00078370668BE4209D0364F90370668BE421B
:1045F00004D0344FA8370668BE4201D1012600E03E
:104600000026DEB190F85C6006F01F073F26BE4032
:10461000AE600668366826F4802607683E60066845
:1046200073608668402E04D10668B2600668F16047
:1046300044E00668B1600668F2603FE0224F066819
:10464000BE4222D0204F14370668BE421DD01E4FF6
:1046500028370668BE4218D01B4F3C370668BE425A
:1046600013D0194F50370668BE420ED0164F64372C
:104670000668BE4209D0144F78370668BE4204D09F
:10468000114F8C370668BE4201D1012600E000269A
:10469000A6B190F85C6006F01F070126BE40666078
:1046A000066873608668402E04D10668B2600668AA
:1046B000F16003E00668B1600668F260F0BD0000DA
:1046C000100002401004024008540258704772B6AD
:1046D00000BFFEE730B504460D46002229462046BD
:1046E00000F002F830BD0000F0B5034601250024BB
:1046F0001148407A01281CDA00200F4E767A0E4FBE
:10470000B8553846467A001D40F82630001F467AD4
:10471000083082553E46707A461C7E72044604F18B
:10472000300008703A2048702F2088700020C87030
:1047300000252846F0BD0000E82A00242DE9F041BC
:1047400007460D4616464FF001080EF0ADFA384602
:1047500000F066F8E0B90EF0A7FABB200EF016FBE9
:10476000012815D100240DE0681EA04204D10020CC
:104770000EF06CFA305503E001200EF067FA305568
:10478000601CC4B2AC42EFDB0EF0B0FA4FF0000890
:104790000EF0ACFA4046BDE8F081000010B50EF016
:1047A0003DFB00221021114804F038F901220821B4
:1047B0000E4804F033F942F210700EF00FFA0022A6
:1047C00008210A4804F02AF909480EF007FA0122E4
:1047D0000821064804F022F906480EF0FFF90EF011
:1047E00009FB44F620600EF0F9F910BD00100258E4
:1047F000F04902003057050070B506460C460EF031
:1048000053FA304600F00CF828B920460EF0BEFAF4
:10481000012800D001250EF069FA0025284670BD58
:1048200070B504460EF040FABA200EF0AFFA012837
:104830000AD120120EF0AAFA012805D1E0B20EF03A
:10484000A5FA012800D001250025284670BD0000EA
:104850002DE9F04399B005460C464FF00008804919
:104860002868884200D104E040F61F117DA018F0AE
:104870009EF92068A0B12068012811D02068022884
:104880000ED0206803280BD02068052808D02068A7
:10489000062805D02068072802D02068092800D102
:1048A00004E04FF412616FA018F081F9206800282D
:1048B00037D0606838B16068B0F5004F03D06068E9
:1048C000B0F5404F00D104E040F6231165A018F088
:1048D0006EF9A068F8B1A068B0F5807F1BD0A06821
:1048E000B0F5007F17D0A068B0F5407F13D0A06866
:1048F000B0F5806F0FD0A068B0F5A06F0BD0A068A6
:10490000B0F5E06F07D0A068B0F5006F03D0A068E5
:10491000B0F5006F00D104E040F6241151A018F06A
:1049200046F900BF95F85000012803D1022019B0C4
:10493000BDE8F083012085F8500000BF00201590ED
:10494000169047492868884202D15548009001E0F6
:1049500000200090009850B9686D40F02000686514
:1049600000BF002085F8500000BF0120DFE700985D
:104970000AF0D3FE074628680AF0CFFE002861D16E
:10498000002F5FD136492868884203D044492868FF
:10499000884201D1434800E043480646206858B3A6
:1049A000B06820F4404061680843B0602C49286832
:1049B000884203D03A492868884201D1394800E04A
:1049C00039483849884209D125480AF097FE81467E
:1049D00033480AF093FE49EA000002E033480AF047
:1049E0008DFE70BBA16820680843B16840F61F7255
:1049F00091430843B0602BE0B06820F44040B060C1
:104A000017492868884203D025492868884201D17F
:104A1000244800E024482349884209D110480AF07C
:104A20006DFE81461E480AF069FE49EA000002E078
:104A30001E480AF063FE20B9B06840F61F71884333
:104A4000B06005E0686D40F0200068654FF0010837
:104A500000BF002085F8500000BF404667E7000017
:104A6000002002402E2E2F447269766572732F53F8
:104A7000544D3332483778785F48414C5F4472690F
:104A80007665722F5372632F73746D333268377883
:104A9000785F68616C5F6164635F65782E630000B6
:104AA00000210240002302400063025800600258C7
:104AB0002DE9F84F05460C464FF0000A0020009003
:104AC000FE492868884207D0FD492868884203D0FB
:104AD000FC492868884200D104E040F61431FAA06D
:104AE00018F065F8606806283BD060680C2838D05C
:104AF0006068122835D06068182832D06068B0F538
:104B0000807F2ED06068B0F5837F2AD06068B0F5D2
:104B1000867F26D06068B0F5897F22D06068B0F5C6
:104B20008C7F1ED06068B0F5007F1AD040F206215D
:104B30006068884215D06068B0F5037F11D040F2FC
:104B40001221606888420CD06068B0F5067F08D0FA
:104B50006068B0F5407F04D040F20631606888425A
:104B600000D104E040F61531D7A018F020F8A06875
:104B7000A0B1A068012811D0A06802280ED0A068BA
:104B800003280BD0A068042808D0A068052805D009
:104B9000A068062802D0A068072800D104E040F6EB
:104BA0001631C9A018F003F840F2FF71E06888429E
:104BB00003D0D349E068884200D104E040F61731C1
:104BC000C1A017F0F4FF206904280AD0206940B181
:104BD0002069012805D02069022802D02069032815
:104BE00000D104E040F61831B7A017F0E0FF95F8C7
:104BF0003800012814D16169E86B401CB1FBF0FB5F
:104C000028680AF057FD41084FF6FF70C8408345F9
:104C100000D815E040F61C31ABA017F0C8FF0FE03C
:104C200028680AF047FD41084FF6FF70C8406169E7
:104C3000884200D304E040F62831A3A017F0B7FF64
:104C40002069042803D095F83800012800D004E03A
:104C500040F62E319CA017F0AAFFA949E0688842CF
:104C600069D0206801285FD0A649206888425BD0BF
:104C700049002068884257D0A3492068884253D011
:104C8000A249206888424FD0A149206888424BD071
:104C9000A0492068884247D09F492068884243D075
:104CA0009E49206888423FD09D49206888423BD079
:104CB0009C492068884237D09B492068884233D07D
:104CC0009A49206888422FD09949206888422BD081
:104CD00098492068884227D097492068884223D085
:104CE0009649206888421FD09549206888421BD089
:104CF00094492068884217D093492068884213D08D
:104D00009249206888420FD09149206888420BD090
:104D100090492068884207D08D492068884203D096
:104D20008D492068884200D197E040F6333166A073
:104D300017F03DFF91E06149286888422DD1714903
:104D40002068884223D04900206888421FD06E49DD
:104D5000206888421BD06D492068884217D06C4972
:104D60002068884213D06F49206888420FD06E496E
:104D7000206888420BD06D492068884207D06F496F
:104D80002068884203D06F492068884200D104E03F
:104D900040F639314CA017F00AFF4949286888428B
:104DA00029D15849206888421FD04900206888428C
:104DB0001BD055492068884217D054492068884242
:104DC00013D05349206888420FD056492068884242
:104DD0000BD055492068884207D054492068884242
:104DE00003D058492068884200D104E040F63D31A4
:104DF00035A017F0DCFE3349286888422DD141499F
:104E00002068884223D04900206888421FD03E494C
:104E1000206888421BD03D492068884217D03C4911
:104E20002068884213D03F49206888420FD03E490D
:104E3000206888420BD03E492068884207D03D490F
:104E40002068884203D03C492068884200D104E0B1
:104E500040F643311CA017F0AAFE00BF95F85000A1
:104E6000012802D10220BDE8F88F012085F850000A
:104E700000BF28680AF04CFC00286FD12868C1697F
:104E80002068C0F3130018B92068C0F3846004E000
:104E9000206890FAA0F0B0FA80F000F01F02012024
:104EA000904001432868C1612968D4E9002001F1DC
:104EB000300CC0F3012B0CEB8B0350E000200240C0
:104EC00000210240006002582E2E2F447269766540
:104ED00072732F53544D3332483778785F48414CC2
:104EE0005F4472697665722F5372632F73746D33EA
:104EF00032683778785F68616C5F6164632E630045
:104F00000000FF47020030040800900C1000C010A1
:104F10002000F014400020198000501D0001802165
:104F20000002B0250004002A0008302E0010603274
:104F3000002090360040C03A0080F03E000021433F
:104F4000000052470000844B0000B84F000084CBA3
:104F5000000052C7000021C30000B8CF4FE2D3F8D1
:104F600000C000F01F0E4FF01F0B0BFA0EFB2CEAD7
:104F70000B0C00F01F0BC2F3846E0EFA0BFE4CEA12
:104F80000E0CC3F800C000BF28680AF0C1FB8146C0
:104F900028680AF0A9FB8046B9F1000F78D1B8F172
:104FA000000FFBD1A268216828680AF0CDFBFE48FB
:104FB000006800F07040B0F1805F07D16069296837
:104FC000C968C1F382014900884014E02868C068BC
:104FD00000F0100038B960692968C968C1F382011E
:104FE0004900884007E060692968C96801F010013C
:104FF00089084900884007462069042857D0286856
:105000002268216900F1600C0CEB8103D3F800C029
:105010000CF0004C02F0F84B4BEA070B4CEA0B0C7F
:10502000C3F800C000BF607E10B1607E012800D1CF
:1050300005E040F68F31AFF2701017F0B8FD286828
:10504000627E2169012A01D1D20700E000221346C5
:1050500000F1600C0CEB8102D2F800C02CF0004C87
:105060004CEA030CC2F800C000BF207E10B1207EC5
:10507000012800D105E040F69331AFF2B41017F0EB
:1050800096FD2868237E2169012B02D1DB0201E015
:1050900045E000231A46036923F4F04301F01F0C96
:1050A00002FA0CFC43EA0C03036100BF37E02868F6
:1050B000006E00F0F8402178B0EB816F05D12868D0
:1050C000006E20F00040296808662868406E00F0F5
:1050D000F8402178B0EB816F05D12868406E20F050
:1050E0000040296848662868806E00F0F840217802
:1050F000B0EB816F05D12868806E20F000402968F0
:1051000088662868C06E00F0F8402178B0EB816FA7
:1051100005D12868C06E20F000402968C86628685C
:105120000AF0E7FA002872D12868E2682168D0F80E
:10513000C030C1F3130C23EA0C0302F0180BDFF8A4
:105140006CC22CFA0BFC0CEA010C43EA0C03C0F80D
:10515000C03000BF9649E06888427DD12368C3F320
:1051600013031BB92368C3F3846304E0236893FA31
:10517000A3F3B3FA83F35B1C03F01F03092B3ED8A0
:105180002368C3F313031BB92368C3F3846304E0E8
:10519000236893FAA3F3B3FA83F35B1C03F01F03B2
:1051A0004FF0010C0CFA03FC2368C3F313031BB983
:1051B0002368C3F3846304E0236893FAA3F3B3FA88
:1051C00083F35B1C03F01F034CEA836C2368C3F377
:1051D00013031BB92368C3F3846304E0236893FAC1
:1051E000A3F3B3FA83F35B1C03F01F0303EB430346
:1051F0004FF0000B4BEA03534CEA030341E02368F2
:10520000C3F3130323B92368C3F3846305E07FE08A
:10521000236893FAA3F3B3FA83F35B1C03F01F0331
:105220004FF0010C0CFA03FC2368C3F313031BB902
:105230002368C3F3846304E0236893FAA3F3B3FA07
:1052400083F35B1C03F01F034CEA836C2368C3F3F6
:1052500013032BB9236800E018E0C3F3846304E070
:10526000236893FAA3F3B3FA83F35B1C03F01F03E1
:105270000A3B03EB43034FF0007B4BEA03534CEA3A
:1052800003031946A26828680AF05EFA206800F055
:105290000040E8B3474A2968914203D0464A29684A
:1052A000914201D1454900E045490846816801F035
:1052B000E07600BF3F492868884203D03E4928680D
:1052C000884201D13D4800E03D483C49884209D12F
:1052D00038480AF00EFA834637480AF00AFA4BEAD1
:1052E000000002E037480AF004FAE8BB36492068BB
:1052F000884228D106F4000028BB32492868884239
:1053000006D12C4B2A689A4205D02B4B2A6800E024
:1053100036E09A4201D1294A00E0294A104646F473
:1053200000010AF025FA294800682949B0FBF1F08C
:10533000401C4000009002E00098401E0090009841
:105340000028F9D161E023492068884219D106F08C
:105350008070B0B91B492868884256D1154B2A681D
:105360009A4205D0144B00E042E02A689A4201D1EB
:10537000124A00E0124A104646F080710AF0F8F92D
:1053800043E01549206888423FD106F4800070BB95
:105390000C492868884238D1064B2A689A421ED0A8
:1053A000054B2A689A4219E00010005CFFFF0F00CD
:1053B0000000FF470020024000210240002302407D
:1053C0000063025800600258000084CB740000247F
:1053D000400D0300000052C70000B8CF01D10E4AB3
:1053E00000E00E4A104646F480010AF0C1F90CE0D4
:1053F000686D40F0200068654FF0010A05E0686DB7
:1054000040F0200068654FF0010A00BF002085F8D9
:10541000500000BF504626E50023024000630258BA
:1054200070477047704700002DE9F84F04464FF071
:1054300000090020009014B90120BDE8F88FFD4953
:105440002068884207D0FC492068884203D0FB4985
:105450002068884200D104E04FF4D871F8A017F01A
:10546000A6FB6068B0F5803F35D06068B0F5003FBE
:1054700031D06068B0F5403F2DD0606858B36068A7
:10548000B0F5802F27D06068B0F5002F23D060687A
:10549000B0F5402F1FD06068B0F5801F1BD060684A
:1054A000B0F5A01F17D06068B0F5C01F13D06068BA
:1054B000B0F5E01F0FD06068B0F5001F0BD060683A
:1054C000B0F5101F07D06068B0F5201F03D06068EA
:1054D000B0F5301F00D104E040F2B111D8A017F0B0
:1054E00066FBA06888B1A06804280ED0A0681428C4
:1054F0000BD0A068082808D0A068182805D0A0689C
:105500000C2802D0A068102800D104E04FF4D97113
:10551000CBA017F04CFBE06810B1E068012800D187
:1055200004E040F2B311C6A017F041FB607D10B15A
:10553000607D012800D104E04FF4DA71C0A017F0BB
:1055400036FBA06A58B1A06AB0F5806F07D0A06A98
:10555000B0F5006F03D0A06AB0F5406F00D104E051
:1055600040F2B511B6A017F022FB606AB0F5806F6B
:1055700051D0606AB0F5846F4DD0606AB0F5886F25
:1055800049D0606AB0F58C6F45D0606AB0F5906F15
:1055900041D0606AB0F5946F3DD0606AB0F5986F05
:1055A00039D0606AB0F59C6F35D0606AB0F5A06FF5
:1055B00031D0606AB0F5A46F2DD0606AB0F5A86FE5
:1055C00029D0606AB0F5AC6F25D0606AB0F5B06FD5
:1055D00021D0606AB0F5B46F1DD0606AB0F5B86FC5
:1055E00019D0606AB0F5BC6F15D0606AB0F5C06FB5
:1055F00011D0606AB0F5C46F0DD0606AB0F5C86FA5
:1056000009D0606AB0F5CC6F05D0606AB0F5D06F94
:1056100001D0606A00B904E04FF4DB7188A017F094
:10562000C6FAE06A40B1E06A022805D0E06A0128C3
:1056300002D0E06A032800D104E040F2B71180A054
:1056400017F0B5FA2069042802D02069082800D193
:1056500004E04FF4DC717AA017F0A9FA206B18B1BE
:10566000206BB0F5805F00D104E040F2B91174A066
:1056700017F09DFA207D10B1207D012800D104E0B3
:105680004FF4DD716EA017F092FA94F8380018B15B
:1056900094F83800012800D104E040F2BB1168A062
:1056A00017F085FAE06818B3A06918B1A06910284E
:1056B00000D804E040F2BF1161A017F078FA207F13
:1056C00010B1207F012800D104E04FF4E0715CA00C
:1056D00017F06DFA207F01280AD1206A18B1206ADC
:1056E000082800D804E04FF4E27155A017F05FFAE3
:1056F000207F012802D1607D012800D004E040F223
:10570000C9114FA017F053FA606D30B9204600F070
:10571000AFF90020A06584F8500020688168C1F3CB
:10572000407131B120688168534A1140816000BFE7
:1057300000BF206809F0E7FFA8B9206881684F4AD8
:10574000114041F08051816000BF4D4800684D49D3
:10575000B0FBF1F0401C009002E00098401E009069
:1057600000980028F9D1206809F0CDFF48B9606D94
:1057700040F010006065A06D40F00100A0654FF0A2
:105780000109206809F0C4FF0646606D00F01000B2
:1057900000284ED1002EFCD1606D20F4807040F0C6
:1057A00002006065206809F0A4FF78BB21492068E9
:1057B000884203D020492068884201D1324800E065
:1057C00032483149884209D11A4809F092FF82468D
:1057D000194809F08EFF4AEA000002E0174809F074
:1057E00088FF98B9134B22689A4203D0124B226863
:1057F0009A4201D1244A00E0244A10466168826836
:1058000022F47C120A43826000BF00BF03F042F919
:1058100041F2030188423ED9A06810283BD1607D47
:10582000216B41EA4030A168084340F00C01207F21
:105830002EE010E1002002400021024000600258EA
:105840002E2E2F447269766572732F53544D333266
:10585000483778785F48414C5F4472697665722FAB
:105860005372632F73746D3332683778785F686171
:105870006C5F6164632E6300C0FFFF5FC0FFFF7F4A
:1058800074000024400D030000230240006302580E
:1058900041EA004508E0607D216B41EA4030A168A3
:1058A0000843217F40EA0145207F012803D1208C55
:1058B000401E45EA4045606A28B1A08C00F478702B
:1058C000A16A084305432068C06867490840284327
:1058D0002168C860206809F01BFF8046206809F035
:1058E00003FF0746B8F1000F6FD1002FFCD1207DD8
:1058F000E16A41EA80352068C06844F203018843C8
:1059000028432168C86094F83800012878D1E06BFA
:1059100020B1E06BB0F5806F00D805E040F2C921FE
:10592000AFF2E40017F043F9206C20B3206C20287C
:1059300021D0206C40281ED0206C60281BD0206C09
:10594000802818D0206CA02815D0206CC02812D038
:10595000206CE0280FD0206CB0F5807F0BD0206C3D
:10596000B0F5907F07D0206CB0F5A07F03D0206CFD
:10597000B0F5B07F00D105E040F2CB21AFF240108E
:1059800017F015F9606C18B1606CB0F5007F00D1AC
:1059900005E04FF43371AFF2581017F008F9A06C1E
:1059A000012804D040F20141A06C884200D105E0FA
:1059B00040F2CD21AFF2781017F0F9F8606A08B123
:1059C000A06A48B9606C08B906E02AE040F2D32129
:1059D000AFF2941017F0EBF8A08F401E012141EABE
:1059E0000041206C0843616C0843A16C08432168A6
:1059F00009691E4A114008432168086106E0FFE773
:105A00002068006920F001002168086120680069B1
:105A100020F07040616B0843216808612046FEF762
:105A200001F9E068012809D12068006B20F00F001F
:105A3000A169491E08432168086305E02068006BDE
:105A400020F00F0021680863606D20F0020040F034
:105A50000100606505E0606D40F0100060654FF08A
:105A600001094846E9E4000003C0F0FF1EF800FC0D
:105A700010B5B6B00446142131A8FBF743F8BC2199
:105A800002A8FBF73FF837492068884268D14FF4F5
:105A90000020029080102A9002A805F059F808B161
:105AA000FEF715FE00BF3048006840F020002E4988
:105AB00008600846006800F02000019000BF00BFA9
:105AC00000BF29480830006840F00100264908312D
:105AD00008600846006800F00100019000BF00BFA8
